{
  "contractName": "ENFT",
  "abi": [
    {
      "inputs": [],
      "stateMutability": "nonpayable",
      "type": "constructor"
    },
    {
      "anonymous": false,
      "inputs": [
        {
          "indexed": true,
          "internalType": "address",
          "name": "owner",
          "type": "address"
        },
        {
          "indexed": true,
          "internalType": "address",
          "name": "approved",
          "type": "address"
        },
        {
          "indexed": true,
          "internalType": "uint256",
          "name": "tokenId",
          "type": "uint256"
        }
      ],
      "name": "Approval",
      "type": "event"
    },
    {
      "anonymous": false,
      "inputs": [
        {
          "indexed": true,
          "internalType": "address",
          "name": "owner",
          "type": "address"
        },
        {
          "indexed": true,
          "internalType": "address",
          "name": "operator",
          "type": "address"
        },
        {
          "indexed": false,
          "internalType": "bool",
          "name": "approved",
          "type": "bool"
        }
      ],
      "name": "ApprovalForAll",
      "type": "event"
    },
    {
      "anonymous": false,
      "inputs": [
        {
          "indexed": true,
          "internalType": "uint256",
          "name": "nftId",
          "type": "uint256"
        },
        {
          "indexed": true,
          "internalType": "uint256",
          "name": "userId",
          "type": "uint256"
        },
        {
          "indexed": false,
          "internalType": "string",
          "name": "name",
          "type": "string"
        },
        {
          "indexed": false,
          "internalType": "string",
          "name": "description",
          "type": "string"
        },
        {
          "indexed": false,
          "internalType": "uint256",
          "name": "price",
          "type": "uint256"
        },
        {
          "indexed": false,
          "internalType": "string",
          "name": "image",
          "type": "string"
        },
        {
          "indexed": false,
          "internalType": "address payable",
          "name": "seller",
          "type": "address"
        },
        {
          "indexed": false,
          "internalType": "address payable",
          "name": "newowner",
          "type": "address"
        },
        {
          "indexed": false,
          "internalType": "bool",
          "name": "isSold",
          "type": "bool"
        }
      ],
      "name": "NFTCreated",
      "type": "event"
    },
    {
      "anonymous": false,
      "inputs": [
        {
          "indexed": false,
          "internalType": "uint256",
          "name": "nftId",
          "type": "uint256"
        },
        {
          "indexed": false,
          "internalType": "uint256",
          "name": "userId",
          "type": "uint256"
        },
        {
          "indexed": true,
          "internalType": "address",
          "name": "buyer",
          "type": "address"
        },
        {
          "indexed": false,
          "internalType": "uint256",
          "name": "price",
          "type": "uint256"
        },
        {
          "indexed": false,
          "internalType": "bool",
          "name": "isSold",
          "type": "bool"
        }
      ],
      "name": "NftSold",
      "type": "event"
    },
    {
      "anonymous": false,
      "inputs": [
        {
          "indexed": true,
          "internalType": "address",
          "name": "previousOwner",
          "type": "address"
        },
        {
          "indexed": true,
          "internalType": "address",
          "name": "newOwner",
          "type": "address"
        }
      ],
      "name": "OwnershipTransferred",
      "type": "event"
    },
    {
      "anonymous": false,
      "inputs": [
        {
          "indexed": true,
          "internalType": "address",
          "name": "from",
          "type": "address"
        },
        {
          "indexed": true,
          "internalType": "address",
          "name": "to",
          "type": "address"
        },
        {
          "indexed": true,
          "internalType": "uint256",
          "name": "tokenId",
          "type": "uint256"
        }
      ],
      "name": "Transfer",
      "type": "event"
    },
    {
      "anonymous": false,
      "inputs": [
        {
          "indexed": false,
          "internalType": "uint256",
          "name": "userId",
          "type": "uint256"
        },
        {
          "indexed": true,
          "internalType": "address",
          "name": "userAddr",
          "type": "address"
        },
        {
          "indexed": false,
          "internalType": "string",
          "name": "username",
          "type": "string"
        },
        {
          "indexed": false,
          "internalType": "string",
          "name": "password",
          "type": "string"
        },
        {
          "indexed": false,
          "internalType": "string",
          "name": "bio",
          "type": "string"
        },
        {
          "indexed": false,
          "internalType": "uint256",
          "name": "ubalance",
          "type": "uint256"
        }
      ],
      "name": "UserRegister",
      "type": "event"
    },
    {
      "inputs": [],
      "name": "_userId",
      "outputs": [
        {
          "internalType": "uint256",
          "name": "",
          "type": "uint256"
        }
      ],
      "stateMutability": "view",
      "type": "function",
      "constant": true
    },
    {
      "inputs": [
        {
          "internalType": "uint256",
          "name": "",
          "type": "uint256"
        }
      ],
      "name": "allnfts",
      "outputs": [
        {
          "internalType": "uint256",
          "name": "nftId",
          "type": "uint256"
        },
        {
          "internalType": "uint256",
          "name": "userId",
          "type": "uint256"
        },
        {
          "internalType": "string",
          "name": "name",
          "type": "string"
        },
        {
          "internalType": "string",
          "name": "description",
          "type": "string"
        },
        {
          "internalType": "uint256",
          "name": "price",
          "type": "uint256"
        },
        {
          "internalType": "string",
          "name": "image",
          "type": "string"
        },
        {
          "internalType": "address payable",
          "name": "seller",
          "type": "address"
        },
        {
          "internalType": "address payable",
          "name": "newowner",
          "type": "address"
        },
        {
          "internalType": "bool",
          "name": "isSold",
          "type": "bool"
        }
      ],
      "stateMutability": "view",
      "type": "function",
      "constant": true
    },
    {
      "inputs": [
        {
          "internalType": "address",
          "name": "owner",
          "type": "address"
        }
      ],
      "name": "balanceOf",
      "outputs": [
        {
          "internalType": "uint256",
          "name": "",
          "type": "uint256"
        }
      ],
      "stateMutability": "view",
      "type": "function",
      "constant": true
    },
    {
      "inputs": [
        {
          "internalType": "uint256",
          "name": "tokenId",
          "type": "uint256"
        }
      ],
      "name": "getApproved",
      "outputs": [
        {
          "internalType": "address",
          "name": "",
          "type": "address"
        }
      ],
      "stateMutability": "view",
      "type": "function",
      "constant": true
    },
    {
      "inputs": [
        {
          "internalType": "address",
          "name": "owner",
          "type": "address"
        },
        {
          "internalType": "address",
          "name": "operator",
          "type": "address"
        }
      ],
      "name": "isApprovedForAll",
      "outputs": [
        {
          "internalType": "bool",
          "name": "",
          "type": "bool"
        }
      ],
      "stateMutability": "view",
      "type": "function",
      "constant": true
    },
    {
      "inputs": [],
      "name": "name",
      "outputs": [
        {
          "internalType": "string",
          "name": "",
          "type": "string"
        }
      ],
      "stateMutability": "view",
      "type": "function",
      "constant": true
    },
    {
      "inputs": [],
      "name": "nftItemOwner",
      "outputs": [
        {
          "internalType": "address",
          "name": "",
          "type": "address"
        }
      ],
      "stateMutability": "view",
      "type": "function",
      "constant": true
    },
    {
      "inputs": [],
      "name": "nftownaddr",
      "outputs": [
        {
          "internalType": "address",
          "name": "",
          "type": "address"
        }
      ],
      "stateMutability": "view",
      "type": "function",
      "constant": true
    },
    {
      "inputs": [
        {
          "internalType": "uint256",
          "name": "",
          "type": "uint256"
        },
        {
          "internalType": "uint256",
          "name": "",
          "type": "uint256"
        }
      ],
      "name": "nfts",
      "outputs": [
        {
          "internalType": "uint256",
          "name": "nftId",
          "type": "uint256"
        },
        {
          "internalType": "uint256",
          "name": "userId",
          "type": "uint256"
        },
        {
          "internalType": "string",
          "name": "name",
          "type": "string"
        },
        {
          "internalType": "string",
          "name": "description",
          "type": "string"
        },
        {
          "internalType": "uint256",
          "name": "price",
          "type": "uint256"
        },
        {
          "internalType": "string",
          "name": "image",
          "type": "string"
        },
        {
          "internalType": "address payable",
          "name": "seller",
          "type": "address"
        },
        {
          "internalType": "address payable",
          "name": "newowner",
          "type": "address"
        },
        {
          "internalType": "bool",
          "name": "isSold",
          "type": "bool"
        }
      ],
      "stateMutability": "view",
      "type": "function",
      "constant": true
    },
    {
      "inputs": [],
      "name": "owner",
      "outputs": [
        {
          "internalType": "address",
          "name": "",
          "type": "address"
        }
      ],
      "stateMutability": "view",
      "type": "function",
      "constant": true
    },
    {
      "inputs": [
        {
          "internalType": "uint256",
          "name": "tokenId",
          "type": "uint256"
        }
      ],
      "name": "ownerOf",
      "outputs": [
        {
          "internalType": "address",
          "name": "",
          "type": "address"
        }
      ],
      "stateMutability": "view",
      "type": "function",
      "constant": true
    },
    {
      "inputs": [],
      "name": "renounceOwnership",
      "outputs": [],
      "stateMutability": "nonpayable",
      "type": "function"
    },
    {
      "inputs": [
        {
          "internalType": "address",
          "name": "from",
          "type": "address"
        },
        {
          "internalType": "address",
          "name": "to",
          "type": "address"
        },
        {
          "internalType": "uint256",
          "name": "tokenId",
          "type": "uint256"
        }
      ],
      "name": "safeTransferFrom",
      "outputs": [],
      "stateMutability": "nonpayable",
      "type": "function"
    },
    {
      "inputs": [
        {
          "internalType": "address",
          "name": "from",
          "type": "address"
        },
        {
          "internalType": "address",
          "name": "to",
          "type": "address"
        },
        {
          "internalType": "uint256",
          "name": "tokenId",
          "type": "uint256"
        },
        {
          "internalType": "bytes",
          "name": "_data",
          "type": "bytes"
        }
      ],
      "name": "safeTransferFrom",
      "outputs": [],
      "stateMutability": "nonpayable",
      "type": "function"
    },
    {
      "inputs": [
        {
          "internalType": "address",
          "name": "operator",
          "type": "address"
        },
        {
          "internalType": "bool",
          "name": "approved",
          "type": "bool"
        }
      ],
      "name": "setApprovalForAll",
      "outputs": [],
      "stateMutability": "nonpayable",
      "type": "function"
    },
    {
      "inputs": [
        {
          "internalType": "bytes4",
          "name": "interfaceId",
          "type": "bytes4"
        }
      ],
      "name": "supportsInterface",
      "outputs": [
        {
          "internalType": "bool",
          "name": "",
          "type": "bool"
        }
      ],
      "stateMutability": "view",
      "type": "function",
      "constant": true
    },
    {
      "inputs": [],
      "name": "symbol",
      "outputs": [
        {
          "internalType": "string",
          "name": "",
          "type": "string"
        }
      ],
      "stateMutability": "view",
      "type": "function",
      "constant": true
    },
    {
      "inputs": [
        {
          "internalType": "uint256",
          "name": "tokenId",
          "type": "uint256"
        }
      ],
      "name": "tokenURI",
      "outputs": [
        {
          "internalType": "string",
          "name": "",
          "type": "string"
        }
      ],
      "stateMutability": "view",
      "type": "function",
      "constant": true
    },
    {
      "inputs": [
        {
          "internalType": "address",
          "name": "from",
          "type": "address"
        },
        {
          "internalType": "address",
          "name": "to",
          "type": "address"
        },
        {
          "internalType": "uint256",
          "name": "tokenId",
          "type": "uint256"
        }
      ],
      "name": "transferFrom",
      "outputs": [],
      "stateMutability": "nonpayable",
      "type": "function"
    },
    {
      "inputs": [
        {
          "internalType": "address",
          "name": "",
          "type": "address"
        }
      ],
      "name": "users",
      "outputs": [
        {
          "internalType": "uint256",
          "name": "id",
          "type": "uint256"
        },
        {
          "internalType": "address",
          "name": "addr",
          "type": "address"
        },
        {
          "internalType": "string",
          "name": "username",
          "type": "string"
        },
        {
          "internalType": "string",
          "name": "password",
          "type": "string"
        },
        {
          "internalType": "string",
          "name": "bio",
          "type": "string"
        },
        {
          "internalType": "uint256",
          "name": "ubalance",
          "type": "uint256"
        },
        {
          "internalType": "bool",
          "name": "isUserLoggedIn",
          "type": "bool"
        }
      ],
      "stateMutability": "view",
      "type": "function",
      "constant": true
    },
    {
      "inputs": [
        {
          "internalType": "address",
          "name": "owner",
          "type": "address"
        }
      ],
      "name": "getBalance",
      "outputs": [
        {
          "internalType": "uint256",
          "name": "accountBalance",
          "type": "uint256"
        }
      ],
      "stateMutability": "view",
      "type": "function",
      "constant": true
    },
    {
      "inputs": [],
      "name": "totalSupply",
      "outputs": [
        {
          "internalType": "uint256",
          "name": "",
          "type": "uint256"
        }
      ],
      "stateMutability": "view",
      "type": "function",
      "constant": true
    },
    {
      "inputs": [
        {
          "internalType": "address",
          "name": "_to",
          "type": "address"
        },
        {
          "internalType": "uint256",
          "name": "nftId",
          "type": "uint256"
        }
      ],
      "name": "approve",
      "outputs": [],
      "stateMutability": "nonpayable",
      "type": "function"
    },
    {
      "inputs": [
        {
          "internalType": "address",
          "name": "newOwner",
          "type": "address"
        }
      ],
      "name": "transferOwnership",
      "outputs": [],
      "stateMutability": "nonpayable",
      "type": "function"
    },
    {
      "inputs": [
        {
          "internalType": "string",
          "name": "tokenUR",
          "type": "string"
        },
        {
          "internalType": "string",
          "name": "name",
          "type": "string"
        },
        {
          "internalType": "string",
          "name": "description",
          "type": "string"
        },
        {
          "internalType": "uint256",
          "name": "price",
          "type": "uint256"
        },
        {
          "internalType": "string",
          "name": "image",
          "type": "string"
        }
      ],
      "name": "mintNft",
      "outputs": [
        {
          "internalType": "uint256",
          "name": "",
          "type": "uint256"
        }
      ],
      "stateMutability": "nonpayable",
      "type": "function"
    },
    {
      "inputs": [
        {
          "internalType": "uint256",
          "name": "nftId",
          "type": "uint256"
        },
        {
          "internalType": "uint256",
          "name": "useridd",
          "type": "uint256"
        }
      ],
      "name": "getNftItem",
      "outputs": [
        {
          "internalType": "uint256",
          "name": "id",
          "type": "uint256"
        },
        {
          "internalType": "uint256",
          "name": "userid",
          "type": "uint256"
        },
        {
          "internalType": "string",
          "name": "name",
          "type": "string"
        },
        {
          "internalType": "string",
          "name": "description",
          "type": "string"
        },
        {
          "internalType": "uint256",
          "name": "price",
          "type": "uint256"
        },
        {
          "internalType": "string",
          "name": "image",
          "type": "string"
        },
        {
          "internalType": "address",
          "name": "seller",
          "type": "address"
        },
        {
          "internalType": "address",
          "name": "newowner",
          "type": "address"
        },
        {
          "internalType": "bool",
          "name": "isSold",
          "type": "bool"
        }
      ],
      "stateMutability": "view",
      "type": "function",
      "constant": true
    },
    {
      "inputs": [
        {
          "internalType": "uint256",
          "name": "nftId",
          "type": "uint256"
        }
      ],
      "name": "getAllNftItem",
      "outputs": [
        {
          "internalType": "uint256",
          "name": "id",
          "type": "uint256"
        },
        {
          "internalType": "uint256",
          "name": "userid",
          "type": "uint256"
        },
        {
          "internalType": "string",
          "name": "name",
          "type": "string"
        },
        {
          "internalType": "string",
          "name": "description",
          "type": "string"
        },
        {
          "internalType": "uint256",
          "name": "price",
          "type": "uint256"
        },
        {
          "internalType": "string",
          "name": "image",
          "type": "string"
        },
        {
          "internalType": "address",
          "name": "seller",
          "type": "address"
        },
        {
          "internalType": "address",
          "name": "newowner",
          "type": "address"
        },
        {
          "internalType": "bool",
          "name": "isSold",
          "type": "bool"
        }
      ],
      "stateMutability": "view",
      "type": "function",
      "constant": true
    },
    {
      "inputs": [
        {
          "internalType": "uint256",
          "name": "nftId",
          "type": "uint256"
        }
      ],
      "name": "SaleNft",
      "outputs": [],
      "stateMutability": "payable",
      "type": "function",
      "payable": true
    },
    {
      "inputs": [
        {
          "internalType": "uint256",
          "name": "nftId",
          "type": "uint256"
        },
        {
          "internalType": "uint256",
          "name": "userId",
          "type": "uint256"
        }
      ],
      "name": "SaleNftwithId",
      "outputs": [],
      "stateMutability": "payable",
      "type": "function",
      "payable": true
    },
    {
      "inputs": [
        {
          "internalType": "uint256",
          "name": "nftId",
          "type": "uint256"
        }
      ],
      "name": "ownerOfNft",
      "outputs": [
        {
          "internalType": "address",
          "name": "owner",
          "type": "address"
        }
      ],
      "stateMutability": "view",
      "type": "function",
      "constant": true
    },
    {
      "inputs": [
        {
          "internalType": "address",
          "name": "_address",
          "type": "address"
        },
        {
          "internalType": "string",
          "name": "_username",
          "type": "string"
        },
        {
          "internalType": "string",
          "name": "_password",
          "type": "string"
        },
        {
          "internalType": "string",
          "name": "_bio",
          "type": "string"
        }
      ],
      "name": "register",
      "outputs": [
        {
          "internalType": "uint256",
          "name": "",
          "type": "uint256"
        }
      ],
      "stateMutability": "nonpayable",
      "type": "function"
    },
    {
      "inputs": [
        {
          "internalType": "address",
          "name": "_address",
          "type": "address"
        },
        {
          "internalType": "string",
          "name": "_password",
          "type": "string"
        }
      ],
      "name": "login",
      "outputs": [
        {
          "internalType": "bool",
          "name": "",
          "type": "bool"
        }
      ],
      "stateMutability": "nonpayable",
      "type": "function"
    },
    {
      "inputs": [
        {
          "internalType": "address",
          "name": "_addr",
          "type": "address"
        }
      ],
      "name": "getUser",
      "outputs": [
        {
          "internalType": "uint256",
          "name": "id",
          "type": "uint256"
        },
        {
          "internalType": "address",
          "name": "addr",
          "type": "address"
        },
        {
          "internalType": "string",
          "name": "username",
          "type": "string"
        },
        {
          "internalType": "string",
          "name": "password",
          "type": "string"
        },
        {
          "internalType": "string",
          "name": "bio",
          "type": "string"
        },
        {
          "internalType": "uint256",
          "name": "ubalance",
          "type": "uint256"
        },
        {
          "internalType": "bool",
          "name": "isUserLoggedIn",
          "type": "bool"
        }
      ],
      "stateMutability": "view",
      "type": "function",
      "constant": true
    },
    {
      "inputs": [
        {
          "internalType": "address",
          "name": "_address",
          "type": "address"
        }
      ],
      "name": "checkIsUserLogged",
      "outputs": [
        {
          "internalType": "bool",
          "name": "",
          "type": "bool"
        }
      ],
      "stateMutability": "view",
      "type": "function",
      "constant": true
    },
    {
      "inputs": [
        {
          "internalType": "address",
          "name": "_address",
          "type": "address"
        }
      ],
      "name": "logout",
      "outputs": [],
      "stateMutability": "nonpayable",
      "type": "function"
    }
  ],
  "bytecode": "0x60806040523480156200001157600080fd5b506040518060400160405280600481526020017f454e4654000000000000000000000000000000000000000000000000000000008152506040518060400160405280600481526020017f454e465400000000000000000000000000000000000000000000000000000000815250816000908051906020019062000096929190620001a6565b508060019080519060200190620000af929190620001a6565b505050620000d2620000c6620000d860201b60201c565b620000e060201b60201c565b620002bb565b600033905090565b6000600760009054906101000a900473ffffffffffffffffffffffffffffffffffffffff16905081600760006101000a81548173ffffffffffffffffffffffffffffffffffffffff021916908373ffffffffffffffffffffffffffffffffffffffff1602179055508173ffffffffffffffffffffffffffffffffffffffff168173ffffffffffffffffffffffffffffffffffffffff167f8be0079c531659141344cd1fd0a4f28419497f9722a3daafe3b4186f6b6457e060405160405180910390a35050565b828054620001b49062000256565b90600052602060002090601f016020900481019282620001d8576000855562000224565b82601f10620001f357805160ff191683800117855562000224565b8280016001018555821562000224579182015b828111156200022357825182559160200191906001019062000206565b5b50905062000233919062000237565b5090565b5b808211156200025257600081600090555060010162000238565b5090565b600060028204905060018216806200026f57607f821691505b602082108114156200028657620002856200028c565b5b50919050565b7f4e487b7100000000000000000000000000000000000000000000000000000000600052602260045260246000fd5b615e4e80620002cb6000396000f3fe6080604052600436106102045760003560e01c80638da5cb5b11610118578063c545e16a116100a0578063e89b186a1161006f578063e89b186a14610830578063e985e9c51461084c578063ecd1bb8f14610889578063f2fde38b146108b4578063f8b2cb4f146108dd57610204565b8063c545e16a14610740578063c87b56dd14610785578063cc51f9b9146107c2578063d48639a0146107eb57610204565b8063a87430ba116100e7578063a87430ba1461062f578063b33e7c8c14610672578063b88d4fde146106af578063b922f94c146106d8578063bc4530e71461071557610204565b80638da5cb5b1461058557806395d89b41146105b05780639e3c992e146105db578063a22cb4651461060657610204565b80632f19d50b1161019b5780636352211e1161016a5780636352211e146104955780636f77926b146104d257806370a0823114610515578063715018a6146105525780637354daf91461056957610204565b80632f19d50b146103a557806336e5df3f146103e257806342842e0e146104275780635aed51521461045057610204565b8063095ea7b3116101d7578063095ea7b3146102eb57806318160ddd1461031457806323b872dd1461033f578063297f7b391461036857610204565b806301ffc9a714610209578063063d93d81461024657806306fdde0314610283578063081812fc146102ae575b600080fd5b34801561021557600080fd5b50610230600480360381019061022b91906147aa565b61091a565b60405161023d9190614e51565b60405180910390f35b34801561025257600080fd5b5061026d600480360381019061026891906146c3565b6109fc565b60405161027a91906151d2565b60405180910390f35b34801561028f57600080fd5b50610298610d80565b6040516102a59190614e6c565b60405180910390f35b3480156102ba57600080fd5b506102d560048036038101906102d091906148d3565b610e12565b6040516102e29190614dea565b60405180910390f35b3480156102f757600080fd5b50610312600480360381019061030d919061476e565b610e97565b005b34801561032057600080fd5b50610329610ff0565b60405161033691906151d2565b60405180910390f35b34801561034b57600080fd5b5061036660048036038101906103619190614569565b611001565b005b34801561037457600080fd5b5061038f600480360381019061038a9190614504565b611061565b60405161039c9190614e51565b60405180910390f35b3480156103b157600080fd5b506103cc60048036038101906103c7919061466f565b6110ba565b6040516103d99190614e51565b60405180910390f35b3480156103ee57600080fd5b50610409600480360381019061040491906148fc565b6112dd565b60405161041e999897969594939291906152d9565b60405180910390f35b34801561043357600080fd5b5061044e60048036038101906104499190614569565b61151d565b005b34801561045c57600080fd5b50610477600480360381019061047291906148d3565b61153d565b60405161048c999897969594939291906152d9565b60405180910390f35b3480156104a157600080fd5b506104bc60048036038101906104b791906148d3565b611770565b6040516104c99190614dea565b60405180910390f35b3480156104de57600080fd5b506104f960048036038101906104f49190614504565b611822565b60405161050c97969594939291906151ed565b60405180910390f35b34801561052157600080fd5b5061053c60048036038101906105379190614504565b611a72565b60405161054991906151d2565b60405180910390f35b34801561055e57600080fd5b50610567611b2a565b005b610583600480360381019061057e91906148d3565b611bb2565b005b34801561059157600080fd5b5061059a611f61565b6040516105a79190614dea565b60405180910390f35b3480156105bc57600080fd5b506105c5611f8b565b6040516105d29190614e6c565b60405180910390f35b3480156105e757600080fd5b506105f061201d565b6040516105fd9190614dea565b60405180910390f35b34801561061257600080fd5b5061062d60048036038101906106289190614633565b612043565b005b34801561063b57600080fd5b5061065660048036038101906106519190614504565b6121c4565b60405161066997969594939291906151ed565b60405180910390f35b34801561067e57600080fd5b50610699600480360381019061069491906147fc565b6123cb565b6040516106a691906151d2565b60405180910390f35b3480156106bb57600080fd5b506106d660048036038101906106d191906145b8565b61290f565b005b3480156106e457600080fd5b506106ff60048036038101906106fa91906148d3565b612971565b60405161070c9190614dea565b60405180910390f35b34801561072157600080fd5b5061072a6129c0565b60405161073791906151d2565b60405180910390f35b34801561074c57600080fd5b50610767600480360381019061076291906148fc565b6129c6565b60405161077c9998979695949392919061537b565b60405180910390f35b34801561079157600080fd5b506107ac60048036038101906107a791906148d3565b612cb9565b6040516107b99190614e6c565b60405180910390f35b3480156107ce57600080fd5b506107e960048036038101906107e49190614504565b612e0b565b005b3480156107f757600080fd5b50610812600480360381019061080d91906148d3565b612e69565b6040516108279998979695949392919061537b565b60405180910390f35b61084a600480360381019061084591906148fc565b613107565b005b34801561085857600080fd5b50610873600480360381019061086e919061452d565b6134ad565b6040516108809190614e51565b60405180910390f35b34801561089557600080fd5b5061089e613541565b6040516108ab9190614dea565b60405180910390f35b3480156108c057600080fd5b506108db60048036038101906108d69190614504565b613567565b005b3480156108e957600080fd5b5061090460048036038101906108ff9190614504565b61361b565b60405161091191906151d2565b60405180910390f35b60007f80ac58cd000000000000000000000000000000000000000000000000000000007bffffffffffffffffffffffffffffffffffffffffffffffffffffffff1916827bffffffffffffffffffffffffffffffffffffffffffffffffffffffff191614806109e557507f5b5e139f000000000000000000000000000000000000000000000000000000007bffffffffffffffffffffffffffffffffffffffffffffffffffffffff1916827bffffffffffffffffffffffffffffffffffffffffffffffffffffffff1916145b806109f557506109f48261363c565b5b9050919050565b6000600e6000815480929190610a1190615727565b9190505550600e54600d60008773ffffffffffffffffffffffffffffffffffffffff1673ffffffffffffffffffffffffffffffffffffffff1681526020019081526020016000206000018190555084600d60008773ffffffffffffffffffffffffffffffffffffffff1673ffffffffffffffffffffffffffffffffffffffff16815260200190815260200160002060010160006101000a81548173ffffffffffffffffffffffffffffffffffffffff021916908373ffffffffffffffffffffffffffffffffffffffff16021790555083600d60008773ffffffffffffffffffffffffffffffffffffffff1673ffffffffffffffffffffffffffffffffffffffff1681526020019081526020016000206002019080519060200190610b36929190614328565b5082600d60008773ffffffffffffffffffffffffffffffffffffffff1673ffffffffffffffffffffffffffffffffffffffff1681526020019081526020016000206003019080519060200190610b8d929190614328565b5081600d60008773ffffffffffffffffffffffffffffffffffffffff1673ffffffffffffffffffffffffffffffffffffffff1681526020019081526020016000206004019080519060200190610be4929190614328565b50610bee8561361b565b600d60008773ffffffffffffffffffffffffffffffffffffffff1673ffffffffffffffffffffffffffffffffffffffff168152602001908152602001600020600501819055506000600d60008773ffffffffffffffffffffffffffffffffffffffff1673ffffffffffffffffffffffffffffffffffffffff16815260200190815260200160002060060160006101000a81548160ff0219169083151502179055508473ffffffffffffffffffffffffffffffffffffffff167f72a20d08c9588d773728ba6b2e7f72f17040a361d53751e112ba655e8444b029600e54868686600d60008c73ffffffffffffffffffffffffffffffffffffffff1673ffffffffffffffffffffffffffffffffffffffff16815260200190815260200160002060050154604051610d21959493929190615271565b60405180910390a2610d3285613567565b84601060006101000a81548173ffffffffffffffffffffffffffffffffffffffff021916908373ffffffffffffffffffffffffffffffffffffffff160217905550600e549050949350505050565b606060008054610d8f906156c4565b80601f0160208091040260200160405190810160405280929190818152602001828054610dbb906156c4565b8015610e085780601f10610ddd57610100808354040283529160200191610e08565b820191906000526020600020905b815481529060010190602001808311610deb57829003601f168201915b5050505050905090565b6000610e1d826136a6565b610e5c576040517f08c379a0000000000000000000000000000000000000000000000000000000008152600401610e5390615092565b60405180910390fd5b6004600083815260200190815260200160002060009054906101000a900473ffffffffffffffffffffffffffffffffffffffff169050919050565b610ea081611770565b73ffffffffffffffffffffffffffffffffffffffff163373ffffffffffffffffffffffffffffffffffffffff1614610ed757600080fd5b8173ffffffffffffffffffffffffffffffffffffffff163373ffffffffffffffffffffffffffffffffffffffff161415610f1057600080fd5b80600c60003373ffffffffffffffffffffffffffffffffffffffff1673ffffffffffffffffffffffffffffffffffffffff16815260200190815260200160002060008473ffffffffffffffffffffffffffffffffffffffff1673ffffffffffffffffffffffffffffffffffffffff16815260200190815260200160002081905550808273ffffffffffffffffffffffffffffffffffffffff163373ffffffffffffffffffffffffffffffffffffffff167f8c5be1e5ebec7d5bd14f71427d1e84f3dd0314c0f7b2291e5b200ac8c7c3b92560405160405180910390a45050565b6000610ffc6008613712565b905090565b61101261100c613720565b82613728565b611051576040517f08c379a000000000000000000000000000000000000000000000000000000000815260040161104890615112565b60405180910390fd5b61105c838383613806565b505050565b6000600d60008373ffffffffffffffffffffffffffffffffffffffff1673ffffffffffffffffffffffffffffffffffffffff16815260200190815260200160002060060160009054906101000a900460ff169050919050565b6000816040516020016110cd9190614d98565b60405160208183030381529060405280519060200120600d60008573ffffffffffffffffffffffffffffffffffffffff1673ffffffffffffffffffffffffffffffffffffffff1681526020019081526020016000206003016040516020016111359190614dd3565b604051602081830303815290604052805190602001201461118b576040517f08c379a000000000000000000000000000000000000000000000000000000000815260040161118290615172565b60405180910390fd5b8160405160200161119c9190614d98565b60405160208183030381529060405280519060200120600d60008573ffffffffffffffffffffffffffffffffffffffff1673ffffffffffffffffffffffffffffffffffffffff1681526020019081526020016000206003016040516020016112049190614dd3565b6040516020818303038152906040528051906020012014156112d2576001600d60008573ffffffffffffffffffffffffffffffffffffffff1673ffffffffffffffffffffffffffffffffffffffff16815260200190815260200160002060060160006101000a81548160ff021916908315150217905550600d60008473ffffffffffffffffffffffffffffffffffffffff1673ffffffffffffffffffffffffffffffffffffffff16815260200190815260200160002060060160009054906101000a900460ff1690506112d7565b600090505b92915050565b600960205281600052604060002060205280600052604060002060009150915050806000015490806001015490806002018054611319906156c4565b80601f0160208091040260200160405190810160405280929190818152602001828054611345906156c4565b80156113925780601f1061136757610100808354040283529160200191611392565b820191906000526020600020905b81548152906001019060200180831161137557829003601f168201915b5050505050908060030180546113a7906156c4565b80601f01602080910402602001604051908101604052809291908181526020018280546113d3906156c4565b80156114205780601f106113f557610100808354040283529160200191611420565b820191906000526020600020905b81548152906001019060200180831161140357829003601f168201915b50505050509080600401549080600501805461143b906156c4565b80601f0160208091040260200160405190810160405280929190818152602001828054611467906156c4565b80156114b45780601f10611489576101008083540402835291602001916114b4565b820191906000526020600020905b81548152906001019060200180831161149757829003601f168201915b5050505050908060060160009054906101000a900473ffffffffffffffffffffffffffffffffffffffff16908060070160009054906101000a900473ffffffffffffffffffffffffffffffffffffffff16908060070160149054906101000a900460ff16905089565b6115388383836040518060200160405280600081525061290f565b505050565b600a60205280600052604060002060009150905080600001549080600101549080600201805461156c906156c4565b80601f0160208091040260200160405190810160405280929190818152602001828054611598906156c4565b80156115e55780601f106115ba576101008083540402835291602001916115e5565b820191906000526020600020905b8154815290600101906020018083116115c857829003601f168201915b5050505050908060030180546115fa906156c4565b80601f0160208091040260200160405190810160405280929190818152602001828054611626906156c4565b80156116735780601f1061164857610100808354040283529160200191611673565b820191906000526020600020905b81548152906001019060200180831161165657829003601f168201915b50505050509080600401549080600501805461168e906156c4565b80601f01602080910402602001604051908101604052809291908181526020018280546116ba906156c4565b80156117075780601f106116dc57610100808354040283529160200191611707565b820191906000526020600020905b8154815290600101906020018083116116ea57829003601f168201915b5050505050908060060160009054906101000a900473ffffffffffffffffffffffffffffffffffffffff16908060070160009054906101000a900473ffffffffffffffffffffffffffffffffffffffff16908060070160149054906101000a900460ff16905089565b6000806002600084815260200190815260200160002060009054906101000a900473ffffffffffffffffffffffffffffffffffffffff169050600073ffffffffffffffffffffffffffffffffffffffff168173ffffffffffffffffffffffffffffffffffffffff161415611819576040517f08c379a000000000000000000000000000000000000000000000000000000000815260040161181090615012565b60405180910390fd5b80915050919050565b60008060608060606000806000600d60008a73ffffffffffffffffffffffffffffffffffffffff1673ffffffffffffffffffffffffffffffffffffffff1681526020019081526020016000209050806000015497508060010160009054906101000a900473ffffffffffffffffffffffffffffffffffffffff1696508060020180546118ad906156c4565b80601f01602080910402602001604051908101604052809291908181526020018280546118d9906156c4565b80156119265780601f106118fb57610100808354040283529160200191611926565b820191906000526020600020905b81548152906001019060200180831161190957829003601f168201915b5050505050955080600301805461193c906156c4565b80601f0160208091040260200160405190810160405280929190818152602001828054611968906156c4565b80156119b55780601f1061198a576101008083540402835291602001916119b5565b820191906000526020600020905b81548152906001019060200180831161199857829003601f168201915b505050505094508060040180546119cb906156c4565b80601f01602080910402602001604051908101604052809291908181526020018280546119f7906156c4565b8015611a445780601f10611a1957610100808354040283529160200191611a44565b820191906000526020600020905b815481529060010190602001808311611a2757829003601f168201915b50505050509350806005015492508060060160009054906101000a900460ff16915050919395979092949650565b60008073ffffffffffffffffffffffffffffffffffffffff168273ffffffffffffffffffffffffffffffffffffffff161415611ae3576040517f08c379a0000000000000000000000000000000000000000000000000000000008152600401611ada90614ff2565b60405180910390fd5b600360008373ffffffffffffffffffffffffffffffffffffffff1673ffffffffffffffffffffffffffffffffffffffff168152602001908152602001600020549050919050565b611b32613720565b73ffffffffffffffffffffffffffffffffffffffff16611b50611f61565b73ffffffffffffffffffffffffffffffffffffffff1614611ba6576040517f08c379a0000000000000000000000000000000000000000000000000000000008152600401611b9d906150b2565b60405180910390fd5b611bb06000613a62565b565b8060001515600960008381526020019081526020016000206000600e54815260200190815260200160002060070160149054906101000a900460ff16151514611c30576040517f08c379a0000000000000000000000000000000000000000000000000000000008152600401611c27906151b2565b60405180910390fd5b3373ffffffffffffffffffffffffffffffffffffffff16600d6000600f60009054906101000a900473ffffffffffffffffffffffffffffffffffffffff1673ffffffffffffffffffffffffffffffffffffffff1673ffffffffffffffffffffffffffffffffffffffff16815260200190815260200160002060010160009054906101000a900473ffffffffffffffffffffffffffffffffffffffff1673ffffffffffffffffffffffffffffffffffffffff1614611d22576040517f08c379a0000000000000000000000000000000000000000000000000000000008152600401611d1990615152565b60405180910390fd5b6000600960008481526020019081526020016000206000600e548152602001908152602001600020600401549050600960008481526020019081526020016000206000600e54815260200190815260200160002060060160009054906101000a900473ffffffffffffffffffffffffffffffffffffffff1673ffffffffffffffffffffffffffffffffffffffff166108fc349081150290604051600060405180830381858888f19350505050158015611ddf573d6000803e3d6000fd5b5080600d6000601060009054906101000a900473ffffffffffffffffffffffffffffffffffffffff1673ffffffffffffffffffffffffffffffffffffffff1673ffffffffffffffffffffffffffffffffffffffff1681526020019081526020016000206005016000828254611e5491906155c8565b9250508190555033600960008581526020019081526020016000206000600e54815260200190815260200160002060070160006101000a81548173ffffffffffffffffffffffffffffffffffffffff021916908373ffffffffffffffffffffffffffffffffffffffff1602179055506001600960008581526020019081526020016000206000600e54815260200190815260200160002060070160146101000a81548160ff0219169083151502179055503373ffffffffffffffffffffffffffffffffffffffff167f7e7a9c1206350b326c5aaef5ec53dfaf9e9014c0d3a0212e04788e04ba613af784600e54846001604051611f54949392919061541d565b60405180910390a2505050565b6000600760009054906101000a900473ffffffffffffffffffffffffffffffffffffffff16905090565b606060018054611f9a906156c4565b80601f0160208091040260200160405190810160405280929190818152602001828054611fc6906156c4565b80156120135780601f10611fe857610100808354040283529160200191612013565b820191906000526020600020905b815481529060010190602001808311611ff657829003601f168201915b5050505050905090565b601060009054906101000a900473ffffffffffffffffffffffffffffffffffffffff1681565b61204b613720565b73ffffffffffffffffffffffffffffffffffffffff168273ffffffffffffffffffffffffffffffffffffffff1614156120b9576040517f08c379a00000000000000000000000000000000000000000000000000000000081526004016120b090614f92565b60405180910390fd5b80600560006120c6613720565b73ffffffffffffffffffffffffffffffffffffffff1673ffffffffffffffffffffffffffffffffffffffff16815260200190815260200160002060008473ffffffffffffffffffffffffffffffffffffffff1673ffffffffffffffffffffffffffffffffffffffff16815260200190815260200160002060006101000a81548160ff0219169083151502179055508173ffffffffffffffffffffffffffffffffffffffff16612173613720565b73ffffffffffffffffffffffffffffffffffffffff167f17307eab39ab6107e8899845ad3d59bd9653f200f220920489ca2b5937696c31836040516121b89190614e51565b60405180910390a35050565b600d6020528060005260406000206000915090508060000154908060010160009054906101000a900473ffffffffffffffffffffffffffffffffffffffff1690806002018054612213906156c4565b80601f016020809104026020016040519081016040528092919081815260200182805461223f906156c4565b801561228c5780601f106122615761010080835404028352916020019161228c565b820191906000526020600020905b81548152906001019060200180831161226f57829003601f168201915b5050505050908060030180546122a1906156c4565b80601f01602080910402602001604051908101604052809291908181526020018280546122cd906156c4565b801561231a5780601f106122ef5761010080835404028352916020019161231a565b820191906000526020600020905b8154815290600101906020018083116122fd57829003601f168201915b50505050509080600401805461232f906156c4565b80601f016020809104026020016040519081016040528092919081815260200182805461235b906156c4565b80156123a85780601f1061237d576101008083540402835291602001916123a8565b820191906000526020600020905b81548152906001019060200180831161238b57829003601f168201915b5050505050908060050154908060060160009054906101000a900460ff16905087565b600060011515600d6000600f60009054906101000a900473ffffffffffffffffffffffffffffffffffffffff1673ffffffffffffffffffffffffffffffffffffffff1673ffffffffffffffffffffffffffffffffffffffff16815260200190815260200160002060060160009054906101000a900460ff16151514612485576040517f08c379a000000000000000000000000000000000000000000000000000000000815260040161247c90614fd2565b60405180910390fd5b6000831161249257600080fd5b600061249e6008613712565b90506124aa3382613b28565b6124b48188613b46565b604051806101200160405280828152602001600e5481526020018781526020018681526020018581526020018481526020013373ffffffffffffffffffffffffffffffffffffffff1681526020013073ffffffffffffffffffffffffffffffffffffffff16815260200160001515815250600960008381526020019081526020016000206000600e5481526020019081526020016000206000820151816000015560208201518160010155604082015181600201908051906020019061257b929190614328565b506060820151816003019080519060200190612598929190614328565b506080820151816004015560a08201518160050190805190602001906125bf929190614328565b5060c08201518160060160006101000a81548173ffffffffffffffffffffffffffffffffffffffff021916908373ffffffffffffffffffffffffffffffffffffffff16021790555060e08201518160070160006101000a81548173ffffffffffffffffffffffffffffffffffffffff021916908373ffffffffffffffffffffffffffffffffffffffff1602179055506101008201518160070160146101000a81548160ff021916908315150217905550905050604051806101200160405280828152602001600e5481526020018781526020018681526020018581526020018481526020013373ffffffffffffffffffffffffffffffffffffffff1681526020013073ffffffffffffffffffffffffffffffffffffffff16815260200160001515815250600a600083815260200190815260200160002060008201518160000155602082015181600101556040820151816002019080519060200190612726929190614328565b506060820151816003019080519060200190612743929190614328565b506080820151816004015560a082015181600501908051906020019061276a929190614328565b5060c08201518160060160006101000a81548173ffffffffffffffffffffffffffffffffffffffff021916908373ffffffffffffffffffffffffffffffffffffffff16021790555060e08201518160070160006101000a81548173ffffffffffffffffffffffffffffffffffffffff021916908373ffffffffffffffffffffffffffffffffffffffff1602179055506101008201518160070160146101000a81548160ff02191690831515021790555090505033600b600083815260200190815260200160002060006101000a81548173ffffffffffffffffffffffffffffffffffffffff021916908373ffffffffffffffffffffffffffffffffffffffff16021790555033600f60006101000a81548173ffffffffffffffffffffffffffffffffffffffff021916908373ffffffffffffffffffffffffffffffffffffffff1602179055506128ba6008613bba565b600e54817f26d807c650c317f09216dbf36ae79736edd0b8eb5911bbb96bd16dc552cc563a88888888333060006040516128fa9796959493929190614e8e565b60405180910390a38091505095945050505050565b61292061291a613720565b83613728565b61295f576040517f08c379a000000000000000000000000000000000000000000000000000000000815260040161295690615112565b60405180910390fd5b61296b84848484613bd0565b50505050565b600061297c826136a6565b61298557600080fd5b600b600083815260200190815260200160002060009054906101000a900473ffffffffffffffffffffffffffffffffffffffff169050919050565b600e5481565b6000806060806000606060008060006129de8b6136a6565b612a1d576040517f08c379a0000000000000000000000000000000000000000000000000000000008152600401612a1490615132565b60405180910390fd5b600e548a14612a61576040517f08c379a0000000000000000000000000000000000000000000000000000000008152600401612a5890615192565b60405180910390fd5b6000600960008d815260200190815260200160002060008c8152602001908152602001600020905080600001549950600e549850806002018054612aa4906156c4565b80601f0160208091040260200160405190810160405280929190818152602001828054612ad0906156c4565b8015612b1d5780601f10612af257610100808354040283529160200191612b1d565b820191906000526020600020905b815481529060010190602001808311612b0057829003601f168201915b50505050509750806003018054612b33906156c4565b80601f0160208091040260200160405190810160405280929190818152602001828054612b5f906156c4565b8015612bac5780601f10612b8157610100808354040283529160200191612bac565b820191906000526020600020905b815481529060010190602001808311612b8f57829003601f168201915b5050505050965080600401549550806005018054612bc9906156c4565b80601f0160208091040260200160405190810160405280929190818152602001828054612bf5906156c4565b8015612c425780601f10612c1757610100808354040283529160200191612c42565b820191906000526020600020905b815481529060010190602001808311612c2557829003601f168201915b505050505094508060060160009054906101000a900473ffffffffffffffffffffffffffffffffffffffff1693508060070160009054906101000a900473ffffffffffffffffffffffffffffffffffffffff1692508060070160149054906101000a900460ff169150509295985092959850929598565b6060612cc4826136a6565b612d03576040517f08c379a0000000000000000000000000000000000000000000000000000000008152600401612cfa90615072565b60405180910390fd5b6000600660008481526020019081526020016000208054612d23906156c4565b80601f0160208091040260200160405190810160405280929190818152602001828054612d4f906156c4565b8015612d9c5780601f10612d7157610100808354040283529160200191612d9c565b820191906000526020600020905b815481529060010190602001808311612d7f57829003601f168201915b505050505090506000612dad613c2c565b9050600081511415612dc3578192505050612e06565b600082511115612df8578082604051602001612de0929190614daf565b60405160208183030381529060405292505050612e06565b612e0184613c43565b925050505b919050565b6000600d60008373ffffffffffffffffffffffffffffffffffffffff1673ffffffffffffffffffffffffffffffffffffffff16815260200190815260200160002060060160006101000a81548160ff02191690831515021790555050565b600080606080600060606000806000612e818a6136a6565b612ec0576040517f08c379a0000000000000000000000000000000000000000000000000000000008152600401612eb790615132565b60405180910390fd5b6000600a60008c8152602001908152602001600020905080600001549950600e549850806002018054612ef2906156c4565b80601f0160208091040260200160405190810160405280929190818152602001828054612f1e906156c4565b8015612f6b5780601f10612f4057610100808354040283529160200191612f6b565b820191906000526020600020905b815481529060010190602001808311612f4e57829003601f168201915b50505050509750806003018054612f81906156c4565b80601f0160208091040260200160405190810160405280929190818152602001828054612fad906156c4565b8015612ffa5780601f10612fcf57610100808354040283529160200191612ffa565b820191906000526020600020905b815481529060010190602001808311612fdd57829003601f168201915b5050505050965080600401549550806005018054613017906156c4565b80601f0160208091040260200160405190810160405280929190818152602001828054613043906156c4565b80156130905780601f1061306557610100808354040283529160200191613090565b820191906000526020600020905b81548152906001019060200180831161307357829003601f168201915b505050505094508060060160009054906101000a900473ffffffffffffffffffffffffffffffffffffffff1693508060070160009054906101000a900473ffffffffffffffffffffffffffffffffffffffff1692508060070160149054906101000a900460ff169150509193959799909294969850565b8160001515600960008381526020019081526020016000206000600e54815260200190815260200160002060070160149054906101000a900460ff16151514613185576040517f08c379a000000000000000000000000000000000000000000000000000000000815260040161317c906151b2565b60405180910390fd5b3373ffffffffffffffffffffffffffffffffffffffff16600d6000600f60009054906101000a900473ffffffffffffffffffffffffffffffffffffffff1673ffffffffffffffffffffffffffffffffffffffff1673ffffffffffffffffffffffffffffffffffffffff16815260200190815260200160002060010160009054906101000a900473ffffffffffffffffffffffffffffffffffffffff1673ffffffffffffffffffffffffffffffffffffffff1614613277576040517f08c379a000000000000000000000000000000000000000000000000000000000815260040161326e90615152565b60405180910390fd5b600060096000858152602001908152602001600020600084815260200190815260200160002060040154905060096000858152602001908152602001600020600084815260200190815260200160002060060160009054906101000a900473ffffffffffffffffffffffffffffffffffffffff1673ffffffffffffffffffffffffffffffffffffffff166108fc349081150290604051600060405180830381858888f19350505050158015613330573d6000803e3d6000fd5b5080600d6000601060009054906101000a900473ffffffffffffffffffffffffffffffffffffffff1673ffffffffffffffffffffffffffffffffffffffff1673ffffffffffffffffffffffffffffffffffffffff16815260200190815260200160002060050160008282546133a591906155c8565b925050819055503360096000868152602001908152602001600020600085815260200190815260200160002060070160006101000a81548173ffffffffffffffffffffffffffffffffffffffff021916908373ffffffffffffffffffffffffffffffffffffffff160217905550600160096000868152602001908152602001600020600085815260200190815260200160002060070160146101000a81548160ff0219169083151502179055503373ffffffffffffffffffffffffffffffffffffffff167f7e7a9c1206350b326c5aaef5ec53dfaf9e9014c0d3a0212e04788e04ba613af7858584600160405161349f949392919061541d565b60405180910390a250505050565b6000600560008473ffffffffffffffffffffffffffffffffffffffff1673ffffffffffffffffffffffffffffffffffffffff16815260200190815260200160002060008373ffffffffffffffffffffffffffffffffffffffff1673ffffffffffffffffffffffffffffffffffffffff16815260200190815260200160002060009054906101000a900460ff16905092915050565b600f60009054906101000a900473ffffffffffffffffffffffffffffffffffffffff1681565b600073ffffffffffffffffffffffffffffffffffffffff168173ffffffffffffffffffffffffffffffffffffffff1614156135d7576040517f08c379a00000000000000000000000000000000000000000000000000000000081526004016135ce90614f32565b60405180910390fd5b80600f60006101000a81548173ffffffffffffffffffffffffffffffffffffffff021916908373ffffffffffffffffffffffffffffffffffffffff16021790555050565b60008173ffffffffffffffffffffffffffffffffffffffff16319050919050565b60007f01ffc9a7000000000000000000000000000000000000000000000000000000007bffffffffffffffffffffffffffffffffffffffffffffffffffffffff1916827bffffffffffffffffffffffffffffffffffffffffffffffffffffffff1916149050919050565b60008073ffffffffffffffffffffffffffffffffffffffff166002600084815260200190815260200160002060009054906101000a900473ffffffffffffffffffffffffffffffffffffffff1673ffffffffffffffffffffffffffffffffffffffff1614159050919050565b600081600001549050919050565b600033905090565b6000613733826136a6565b613772576040517f08c379a000000000000000000000000000000000000000000000000000000000815260040161376990614fb2565b60405180910390fd5b600061377d83611770565b90508073ffffffffffffffffffffffffffffffffffffffff168473ffffffffffffffffffffffffffffffffffffffff1614806137ec57508373ffffffffffffffffffffffffffffffffffffffff166137d484610e12565b73ffffffffffffffffffffffffffffffffffffffff16145b806137fd57506137fc81856134ad565b5b91505092915050565b8273ffffffffffffffffffffffffffffffffffffffff1661382682611770565b73ffffffffffffffffffffffffffffffffffffffff161461387c576040517f08c379a0000000000000000000000000000000000000000000000000000000008152600401613873906150d2565b60405180910390fd5b600073ffffffffffffffffffffffffffffffffffffffff168273ffffffffffffffffffffffffffffffffffffffff1614156138ec576040517f08c379a00000000000000000000000000000000000000000000000000000000081526004016138e390614f72565b60405180910390fd5b6138f7838383613cea565b613902600082613cef565b6001600360008573ffffffffffffffffffffffffffffffffffffffff1673ffffffffffffffffffffffffffffffffffffffff168152602001908152602001600020600082825461395291906155c8565b925050819055506001600360008473ffffffffffffffffffffffffffffffffffffffff1673ffffffffffffffffffffffffffffffffffffffff16815260200190815260200160002060008282546139a99190615541565b92505081905550816002600083815260200190815260200160002060006101000a81548173ffffffffffffffffffffffffffffffffffffffff021916908373ffffffffffffffffffffffffffffffffffffffff160217905550808273ffffffffffffffffffffffffffffffffffffffff168473ffffffffffffffffffffffffffffffffffffffff167fddf252ad1be2c89b69c2b068fc378daa952ba7f163c4a11628f55a4df523b3ef60405160405180910390a4505050565b6000600760009054906101000a900473ffffffffffffffffffffffffffffffffffffffff16905081600760006101000a81548173ffffffffffffffffffffffffffffffffffffffff021916908373ffffffffffffffffffffffffffffffffffffffff1602179055508173ffffffffffffffffffffffffffffffffffffffff168173ffffffffffffffffffffffffffffffffffffffff167f8be0079c531659141344cd1fd0a4f28419497f9722a3daafe3b4186f6b6457e060405160405180910390a35050565b613b42828260405180602001604052806000815250613da8565b5050565b613b4f826136a6565b613b8e576040517f08c379a0000000000000000000000000000000000000000000000000000000008152600401613b8590615032565b60405180910390fd5b80600660008481526020019081526020016000209080519060200190613bb5929190614328565b505050565b6001816000016000828254019250508190555050565b613bdb848484613806565b613be784848484613e03565b613c26576040517f08c379a0000000000000000000000000000000000000000000000000000000008152600401613c1d90614f12565b60405180910390fd5b50505050565b606060405180602001604052806000815250905090565b6060613c4e826136a6565b613c8d576040517f08c379a0000000000000000000000000000000000000000000000000000000008152600401613c84906150f2565b60405180910390fd5b6000613c97613c2c565b90506000815111613cb75760405180602001604052806000815250613ce2565b80613cc184613f9a565b604051602001613cd2929190614daf565b6040516020818303038152906040525b915050919050565b505050565b816004600083815260200190815260200160002060006101000a81548173ffffffffffffffffffffffffffffffffffffffff021916908373ffffffffffffffffffffffffffffffffffffffff160217905550808273ffffffffffffffffffffffffffffffffffffffff16613d6283611770565b73ffffffffffffffffffffffffffffffffffffffff167f8c5be1e5ebec7d5bd14f71427d1e84f3dd0314c0f7b2291e5b200ac8c7c3b92560405160405180910390a45050565b613db28383614147565b613dbf6000848484613e03565b613dfe576040517f08c379a0000000000000000000000000000000000000000000000000000000008152600401613df590614f12565b60405180910390fd5b505050565b6000613e248473ffffffffffffffffffffffffffffffffffffffff16614315565b15613f8d578373ffffffffffffffffffffffffffffffffffffffff1663150b7a02613e4d613720565b8786866040518563ffffffff1660e01b8152600401613e6f9493929190614e05565b602060405180830381600087803b158015613e8957600080fd5b505af1925050508015613eba57506040513d601f19601f82011682018060405250810190613eb791906147d3565b60015b613f3d573d8060008114613eea576040519150601f19603f3d011682016040523d82523d6000602084013e613eef565b606091505b50600081511415613f35576040517f08c379a0000000000000000000000000000000000000000000000000000000008152600401613f2c90614f12565b60405180910390fd5b805181602001fd5b63150b7a0260e01b7bffffffffffffffffffffffffffffffffffffffffffffffffffffffff1916817bffffffffffffffffffffffffffffffffffffffffffffffffffffffff191614915050613f92565b600190505b949350505050565b60606000821415613fe2576040518060400160405280600181526020017f30000000000000000000000000000000000000000000000000000000000000008152509050614142565b600082905060005b60008214614014578080613ffd90615727565b915050600a8261400d9190615597565b9150613fea565b60008167ffffffffffffffff811115614056577f4e487b7100000000000000000000000000000000000000000000000000000000600052604160045260246000fd5b6040519080825280601f01601f1916602001820160405280156140885781602001600182028036833780820191505090505b5090505b6000851461413b576001826140a191906155c8565b9150600a856140b09190615770565b60306140bc9190615541565b60f81b8183815181106140f8577f4e487b7100000000000000000000000000000000000000000000000000000000600052603260045260246000fd5b60200101907effffffffffffffffffffffffffffffffffffffffffffffffffffffffffffff1916908160001a905350600a856141349190615597565b945061408c565b8093505050505b919050565b600073ffffffffffffffffffffffffffffffffffffffff168273ffffffffffffffffffffffffffffffffffffffff1614156141b7576040517f08c379a00000000000000000000000000000000000000000000000000000000081526004016141ae90615052565b60405180910390fd5b6141c0816136a6565b15614200576040517f08c379a00000000000000000000000000000000000000000000000000000000081526004016141f790614f52565b60405180910390fd5b61420c60008383613cea565b6001600360008473ffffffffffffffffffffffffffffffffffffffff1673ffffffffffffffffffffffffffffffffffffffff168152602001908152602001600020600082825461425c9190615541565b92505081905550816002600083815260200190815260200160002060006101000a81548173ffffffffffffffffffffffffffffffffffffffff021916908373ffffffffffffffffffffffffffffffffffffffff160217905550808273ffffffffffffffffffffffffffffffffffffffff16600073ffffffffffffffffffffffffffffffffffffffff167fddf252ad1be2c89b69c2b068fc378daa952ba7f163c4a11628f55a4df523b3ef60405160405180910390a45050565b600080823b905060008111915050919050565b828054614334906156c4565b90600052602060002090601f016020900481019282614356576000855561439d565b82601f1061436f57805160ff191683800117855561439d565b8280016001018555821561439d579182015b8281111561439c578251825591602001919060010190614381565b5b5090506143aa91906143ae565b5090565b5b808211156143c75760008160009055506001016143af565b5090565b60006143de6143d984615487565b615462565b9050828152602081018484840111156143f657600080fd5b614401848285615682565b509392505050565b600061441c614417846154b8565b615462565b90508281526020810184848401111561443457600080fd5b61443f848285615682565b509392505050565b60008135905061445681615dbc565b92915050565b60008135905061446b81615dd3565b92915050565b60008135905061448081615dea565b92915050565b60008151905061449581615dea565b92915050565b600082601f8301126144ac57600080fd5b81356144bc8482602086016143cb565b91505092915050565b600082601f8301126144d657600080fd5b81356144e6848260208601614409565b91505092915050565b6000813590506144fe81615e01565b92915050565b60006020828403121561451657600080fd5b600061452484828501614447565b91505092915050565b6000806040838503121561454057600080fd5b600061454e85828601614447565b925050602061455f85828601614447565b9150509250929050565b60008060006060848603121561457e57600080fd5b600061458c86828701614447565b935050602061459d86828701614447565b92505060406145ae868287016144ef565b9150509250925092565b600080600080608085870312156145ce57600080fd5b60006145dc87828801614447565b94505060206145ed87828801614447565b93505060406145fe878288016144ef565b925050606085013567ffffffffffffffff81111561461b57600080fd5b6146278782880161449b565b91505092959194509250565b6000806040838503121561464657600080fd5b600061465485828601614447565b92505060206146658582860161445c565b9150509250929050565b6000806040838503121561468257600080fd5b600061469085828601614447565b925050602083013567ffffffffffffffff8111156146ad57600080fd5b6146b9858286016144c5565b9150509250929050565b600080600080608085870312156146d957600080fd5b60006146e787828801614447565b945050602085013567ffffffffffffffff81111561470457600080fd5b614710878288016144c5565b935050604085013567ffffffffffffffff81111561472d57600080fd5b614739878288016144c5565b925050606085013567ffffffffffffffff81111561475657600080fd5b614762878288016144c5565b91505092959194509250565b6000806040838503121561478157600080fd5b600061478f85828601614447565b92505060206147a0858286016144ef565b9150509250929050565b6000602082840312156147bc57600080fd5b60006147ca84828501614471565b91505092915050565b6000602082840312156147e557600080fd5b60006147f384828501614486565b91505092915050565b600080600080600060a0868803121561481457600080fd5b600086013567ffffffffffffffff81111561482e57600080fd5b61483a888289016144c5565b955050602086013567ffffffffffffffff81111561485757600080fd5b614863888289016144c5565b945050604086013567ffffffffffffffff81111561488057600080fd5b61488c888289016144c5565b935050606061489d888289016144ef565b925050608086013567ffffffffffffffff8111156148ba57600080fd5b6148c6888289016144c5565b9150509295509295909350565b6000602082840312156148e557600080fd5b60006148f3848285016144ef565b91505092915050565b6000806040838503121561490f57600080fd5b600061491d858286016144ef565b925050602061492e858286016144ef565b9150509250929050565b6149418161560e565b82525050565b614950816155fc565b82525050565b61495f81615620565b82525050565b6000614970826154fe565b61497a8185615514565b935061498a818560208601615691565b6149938161585d565b840191505092915050565b60006149a982615509565b6149b38185615525565b93506149c3818560208601615691565b6149cc8161585d565b840191505092915050565b60006149e282615509565b6149ec8185615536565b93506149fc818560208601615691565b80840191505092915050565b60008154614a15816156c4565b614a1f8186615536565b94506001821660008114614a3a5760018114614a4b57614a7e565b60ff19831686528186019350614a7e565b614a54856154e9565b60005b83811015614a7657815481890152600182019150602081019050614a57565b838801955050505b50505092915050565b6000614a94603283615525565b9150614a9f8261586e565b604082019050919050565b6000614ab7602683615525565b9150614ac2826158bd565b604082019050919050565b6000614ada601c83615525565b9150614ae58261590c565b602082019050919050565b6000614afd602483615525565b9150614b0882615935565b604082019050919050565b6000614b20601983615525565b9150614b2b82615984565b602082019050919050565b6000614b43602c83615525565b9150614b4e826159ad565b604082019050919050565b6000614b66601783615525565b9150614b71826159fc565b602082019050919050565b6000614b89602a83615525565b9150614b9482615a25565b604082019050919050565b6000614bac602983615525565b9150614bb782615a74565b604082019050919050565b6000614bcf602e83615525565b9150614bda82615ac3565b604082019050919050565b6000614bf2602083615525565b9150614bfd82615b12565b602082019050919050565b6000614c15603183615525565b9150614c2082615b3b565b604082019050919050565b6000614c38602c83615525565b9150614c4382615b8a565b604082019050919050565b6000614c5b602083615525565b9150614c6682615bd9565b602082019050919050565b6000614c7e602983615525565b9150614c8982615c02565b604082019050919050565b6000614ca1602f83615525565b9150614cac82615c51565b604082019050919050565b6000614cc4603183615525565b9150614ccf82615ca0565b604082019050919050565b6000614ce7601083615525565b9150614cf282615cef565b602082019050919050565b6000614d0a601483615525565b9150614d1582615d18565b602082019050919050565b6000614d2d601283615525565b9150614d3882615d41565b602082019050919050565b6000614d50601383615525565b9150614d5b82615d6a565b602082019050919050565b6000614d73601983615525565b9150614d7e82615d93565b602082019050919050565b614d9281615678565b82525050565b6000614da482846149d7565b915081905092915050565b6000614dbb82856149d7565b9150614dc782846149d7565b91508190509392505050565b6000614ddf8284614a08565b915081905092915050565b6000602082019050614dff6000830184614947565b92915050565b6000608082019050614e1a6000830187614947565b614e276020830186614947565b614e346040830185614d89565b8181036060830152614e468184614965565b905095945050505050565b6000602082019050614e666000830184614956565b92915050565b60006020820190508181036000830152614e86818461499e565b905092915050565b600060e0820190508181036000830152614ea8818a61499e565b90508181036020830152614ebc818961499e565b9050614ecb6040830188614d89565b8181036060830152614edd818761499e565b9050614eec6080830186614938565b614ef960a0830185614938565b614f0660c0830184614956565b98975050505050505050565b60006020820190508181036000830152614f2b81614a87565b9050919050565b60006020820190508181036000830152614f4b81614aaa565b9050919050565b60006020820190508181036000830152614f6b81614acd565b9050919050565b60006020820190508181036000830152614f8b81614af0565b9050919050565b60006020820190508181036000830152614fab81614b13565b9050919050565b60006020820190508181036000830152614fcb81614b36565b9050919050565b60006020820190508181036000830152614feb81614b59565b9050919050565b6000602082019050818103600083015261500b81614b7c565b9050919050565b6000602082019050818103600083015261502b81614b9f565b9050919050565b6000602082019050818103600083015261504b81614bc2565b9050919050565b6000602082019050818103600083015261506b81614be5565b9050919050565b6000602082019050818103600083015261508b81614c08565b9050919050565b600060208201905081810360008301526150ab81614c2b565b9050919050565b600060208201905081810360008301526150cb81614c4e565b9050919050565b600060208201905081810360008301526150eb81614c71565b9050919050565b6000602082019050818103600083015261510b81614c94565b9050919050565b6000602082019050818103600083015261512b81614cb7565b9050919050565b6000602082019050818103600083015261514b81614cda565b9050919050565b6000602082019050818103600083015261516b81614cfd565b9050919050565b6000602082019050818103600083015261518b81614d20565b9050919050565b600060208201905081810360008301526151ab81614d43565b9050919050565b600060208201905081810360008301526151cb81614d66565b9050919050565b60006020820190506151e76000830184614d89565b92915050565b600060e082019050615202600083018a614d89565b61520f6020830189614947565b8181036040830152615221818861499e565b90508181036060830152615235818761499e565b90508181036080830152615249818661499e565b905061525860a0830185614d89565b61526560c0830184614956565b98975050505050505050565b600060a0820190506152866000830188614d89565b8181036020830152615298818761499e565b905081810360408301526152ac818661499e565b905081810360608301526152c0818561499e565b90506152cf6080830184614d89565b9695505050505050565b6000610120820190506152ef600083018c614d89565b6152fc602083018b614d89565b818103604083015261530e818a61499e565b90508181036060830152615322818961499e565b90506153316080830188614d89565b81810360a0830152615343818761499e565b905061535260c0830186614938565b61535f60e0830185614938565b61536d610100830184614956565b9a9950505050505050505050565b600061012082019050615391600083018c614d89565b61539e602083018b614d89565b81810360408301526153b0818a61499e565b905081810360608301526153c4818961499e565b90506153d36080830188614d89565b81810360a08301526153e5818761499e565b90506153f460c0830186614947565b61540160e0830185614947565b61540f610100830184614956565b9a9950505050505050505050565b60006080820190506154326000830187614d89565b61543f6020830186614d89565b61544c6040830185614d89565b6154596060830184614956565b95945050505050565b600061546c61547d565b905061547882826156f6565b919050565b6000604051905090565b600067ffffffffffffffff8211156154a2576154a161582e565b5b6154ab8261585d565b9050602081019050919050565b600067ffffffffffffffff8211156154d3576154d261582e565b5b6154dc8261585d565b9050602081019050919050565b60008190508160005260206000209050919050565b600081519050919050565b600081519050919050565b600082825260208201905092915050565b600082825260208201905092915050565b600081905092915050565b600061554c82615678565b915061555783615678565b9250827fffffffffffffffffffffffffffffffffffffffffffffffffffffffffffffffff0382111561558c5761558b6157a1565b5b828201905092915050565b60006155a282615678565b91506155ad83615678565b9250826155bd576155bc6157d0565b5b828204905092915050565b60006155d382615678565b91506155de83615678565b9250828210156155f1576155f06157a1565b5b828203905092915050565b600061560782615658565b9050919050565b600061561982615658565b9050919050565b60008115159050919050565b60007fffffffff0000000000000000000000000000000000000000000000000000000082169050919050565b600073ffffffffffffffffffffffffffffffffffffffff82169050919050565b6000819050919050565b82818337600083830152505050565b60005b838110156156af578082015181840152602081019050615694565b838111156156be576000848401525b50505050565b600060028204905060018216806156dc57607f821691505b602082108114156156f0576156ef6157ff565b5b50919050565b6156ff8261585d565b810181811067ffffffffffffffff8211171561571e5761571d61582e565b5b80604052505050565b600061573282615678565b91507fffffffffffffffffffffffffffffffffffffffffffffffffffffffffffffffff821415615765576157646157a1565b5b600182019050919050565b600061577b82615678565b915061578683615678565b925082615796576157956157d0565b5b828206905092915050565b7f4e487b7100000000000000000000000000000000000000000000000000000000600052601160045260246000fd5b7f4e487b7100000000000000000000000000000000000000000000000000000000600052601260045260246000fd5b7f4e487b7100000000000000000000000000000000000000000000000000000000600052602260045260246000fd5b7f4e487b7100000000000000000000000000000000000000000000000000000000600052604160045260246000fd5b6000601f19601f8301169050919050565b7f4552433732313a207472616e7366657220746f206e6f6e20455243373231526560008201527f63656976657220696d706c656d656e7465720000000000000000000000000000602082015250565b7f4f776e61626c653a206e6577206f776e657220697320746865207a65726f206160008201527f6464726573730000000000000000000000000000000000000000000000000000602082015250565b7f4552433732313a20746f6b656e20616c7265616479206d696e74656400000000600082015250565b7f4552433732313a207472616e7366657220746f20746865207a65726f2061646460008201527f7265737300000000000000000000000000000000000000000000000000000000602082015250565b7f4552433732313a20617070726f766520746f2063616c6c657200000000000000600082015250565b7f4552433732313a206f70657261746f7220717565727920666f72206e6f6e657860008201527f697374656e7420746f6b656e0000000000000000000000000000000000000000602082015250565b7f596f7520617265206e6f7420726567697374657265642e000000000000000000600082015250565b7f4552433732313a2062616c616e636520717565727920666f7220746865207a6560008201527f726f206164647265737300000000000000000000000000000000000000000000602082015250565b7f4552433732313a206f776e657220717565727920666f72206e6f6e657869737460008201527f656e7420746f6b656e0000000000000000000000000000000000000000000000602082015250565b7f45524337323155524953746f726167653a2055524920736574206f66206e6f6e60008201527f6578697374656e7420746f6b656e000000000000000000000000000000000000602082015250565b7f4552433732313a206d696e7420746f20746865207a65726f2061646472657373600082015250565b7f45524337323155524953746f726167653a2055524920717565727920666f722060008201527f6e6f6e6578697374656e7420746f6b656e000000000000000000000000000000602082015250565b7f4552433732313a20617070726f76656420717565727920666f72206e6f6e657860008201527f697374656e7420746f6b656e0000000000000000000000000000000000000000602082015250565b7f4f776e61626c653a2063616c6c6572206973206e6f7420746865206f776e6572600082015250565b7f4552433732313a207472616e73666572206f6620746f6b656e2074686174206960008201527f73206e6f74206f776e0000000000000000000000000000000000000000000000602082015250565b7f4552433732314d657461646174613a2055524920717565727920666f72206e6f60008201527f6e6578697374656e7420746f6b656e0000000000000000000000000000000000602082015250565b7f4552433732313a207472616e736665722063616c6c6572206973206e6f74206f60008201527f776e6572206e6f7220617070726f766564000000000000000000000000000000602082015250565b7f746f6b656e206e6f74206d696e74656400000000000000000000000000000000600082015250565b7f596f7520617265206e6f7420627579206e66742e000000000000000000000000600082015250565b7f6e6f742070617373776f726420657175616c0000000000000000000000000000600082015250565b7f7573657220696420206e6f74206d696e74656400000000000000000000000000600082015250565b7f6e6f7420616761696e20627579696e67206e6674206974656d00000000000000600082015250565b615dc5816155fc565b8114615dd057600080fd5b50565b615ddc81615620565b8114615de757600080fd5b50565b615df38161562c565b8114615dfe57600080fd5b50565b615e0a81615678565b8114615e1557600080fd5b5056fea264697066735822122003f618c7e1f0e58aafa4c2a19ff7708d5182e3746884f83ed83983ad04af42ff64736f6c63430008020033",
  "immutableReferences": {},
  "source": "// contracts/ENFT.sol\n// SPDX-License-Identifier: MIT\npragma solidity >=0.4.22 <0.9.0;\n\nimport \"@openzeppelin/contracts/token/ERC721/ERC721.sol\";\nimport \"@openzeppelin/contracts/token/ERC721/extensions/ERC721Enumerable.sol\";\nimport \"@openzeppelin/contracts/token/ERC721/extensions/ERC721URIStorage.sol\";\nimport \"@openzeppelin/contracts/utils/Counters.sol\";\nimport \"@openzeppelin/contracts/access/Ownable.sol\";\n\n\ncontract ENFT is ERC721URIStorage , Ownable{\n    \n    event NFTCreated (\n      uint256 indexed nftId,\n      uint256 indexed userId,\n      string name,\n      string description,\n      uint256 price,\n      string image,\n      address payable seller,\n      address payable newowner,\n      bool isSold\n   );\n  \n   event NftSold(uint256 nftId, uint256  userId, address indexed buyer, uint256 price, bool isSold);\n   event UserRegister(uint256 userId, address indexed userAddr, string username, string password, string bio, uint ubalance);\n   \n   modifier SaleNftItem(uint256 nftId) {\n       require(nfts[nftId][_userId].isSold == false, \"not again buying nft item\");\n       _;\n   }\n   \n    modifier onlyApproved {\n       require(users[nftItemOwner].isUserLoggedIn == true, \"You are not registered.\");\n        _;\n    }\n\n       \n    modifier nftOwner(uint256 Id) {\n       require(NftOwners[Id] == msg.sender, \"You are not owner.\");\n        _;\n    }\n  \n    struct NFT {\n        uint256 nftId;\n        uint256 userId;\n        string name;\n        string description;\n        uint256 price;\n        string image;\n        address payable seller;\n        address payable newowner;\n        bool isSold;\n     }\n     \n\n     struct User {\n        uint id;\n        address addr;\n        string username;\n        string password;\n        string bio;\n        uint ubalance;\n        bool isUserLoggedIn;\n    }\n    \n    using Counters for Counters.Counter;\n    using Strings for uint256;\n    Counters.Counter private _tokenIds;\n\n\n    mapping(uint256 => mapping(uint256 => NFT)) public nfts;\n    mapping(uint256 => NFT) public allnfts;\n    mapping(uint256 => address) private NftOwners;\n    mapping(address => mapping (address => uint256)) allowed;\n    mapping(address => User) public users;\n        \n    uint256 public _userId;\n    address public nftItemOwner;\n    address public nftownaddr;\n\n    constructor() ERC721(\"ENFT\", \"ENFT\") {  \n\n    }\n\n\n    \n    function getBalance(address owner) public view returns(uint accountBalance)\n    {\n       accountBalance = owner.balance;\n    }\n     \n    function totalSupply() public view returns (uint256) \n     {\n        return _tokenIds.current();\n     }\n     \n\n    function approve(address _to, uint256 nftId) public virtual override \n     {\n        require(msg.sender == ownerOf(nftId));\n        require(msg.sender != _to);\n        allowed[msg.sender][_to] = nftId;\n        emit Approval(msg.sender, _to, nftId);\n     }\n     \n     function transferOwnership(address newOwner) public override {\n        require(newOwner != address(0), \"Ownable: new owner is the zero address\");\n         nftItemOwner = newOwner;\n    }\n     \n\n    function mintNft(string memory tokenUR, string memory name, string memory description, uint256 price, string memory image) external onlyApproved returns (uint256) \n     {\n        // require(_owner == msg.sender);\n        require(price > 0);\n\n        uint256 newNftTokenId = _tokenIds.current();\n        _safeMint(msg.sender, newNftTokenId);\n        _setTokenURI(newNftTokenId, tokenUR);\n        \n        nfts[newNftTokenId][_userId] = NFT(newNftTokenId, _userId, name, description, price, image, payable(msg.sender), payable(address(this)), false);\n        allnfts[newNftTokenId] = NFT(newNftTokenId, _userId, name, description, price, image, payable(msg.sender), payable(address(this)), false);\n        NftOwners[newNftTokenId] = msg.sender;\n        nftItemOwner = msg.sender;\n        _tokenIds.increment();\n        emit NFTCreated(newNftTokenId, _userId, name, description, price, image, payable(msg.sender), payable(address(this)) , false);\n        return newNftTokenId;                                      \n     }\n    \n\n     function getNftItem(uint256 nftId, uint256 useridd) external view returns (uint256 id, uint256 userid,string memory name, string memory description, uint256 price, string memory image, address seller, address newowner, bool isSold) \n       {\n         require(_exists(nftId), \"token not minted\");\n         require(useridd == _userId, \"user id  not minted\");\n        //  require(_userid == userId, \"userid mistake\");\n        //  require(NftOwners[nftId] == msg.sender, \"nft not owner\");\n        //  require(nftItemOwner == msg.sender, \"nft not owner\");\n         NFT storage nft = nfts[nftId][useridd];\n         id = nft.nftId;\n         userid = _userId;\n         name = nft.name;\n         description = nft.description;\n         price = nft.price;\n         image = nft.image;\n         seller = nft.seller;\n         newowner =  nft.newowner;\n         isSold = nft.isSold;\n       }\n       \n    function getAllNftItem(uint256 nftId) external view returns (uint256 id, uint256 userid,string memory name, string memory description, uint256 price, string memory image, address seller, address newowner, bool isSold) \n       {\n         require(_exists(nftId), \"token not minted\");\n         NFT storage nft = allnfts[nftId];\n         id = nft.nftId;\n         userid = _userId;\n         name = nft.name;\n         description = nft.description;\n         price = nft.price;\n         image = nft.image;\n         seller = nft.seller;\n         newowner =  nft.newowner;\n         isSold = nft.isSold;\n       }\n     \n      function SaleNft(uint256 nftId) public payable SaleNftItem(nftId)\n       {\n           require(users[nftItemOwner].addr == msg.sender, \"You are not buy nft.\");\n        // require(msg.value == price, \"Please submit the asking price in order to complete the purchase\");\n            uint price = nfts[nftId][_userId].price;\n            nfts[nftId][_userId].seller.transfer(msg.value);\n            users[nftownaddr].ubalance -= price;\n            nfts[nftId][_userId].newowner = payable(msg.sender);\n            nfts[nftId][_userId].isSold = true;\n            emit NftSold(nftId, _userId, msg.sender, price , true);\n       }\n       \n    function SaleNftwithId(uint256 nftId, uint256 userId) public payable SaleNftItem(nftId)\n       {\n           require(users[nftItemOwner].addr == msg.sender, \"You are not buy nft.\");\n        // require(msg.value == price, \"Please submit the asking price in order to complete the purchase\");\n            uint price = nfts[nftId][userId].price;\n            nfts[nftId][userId].seller.transfer(msg.value);\n            users[nftownaddr].ubalance -= price;\n            nfts[nftId][userId].newowner = payable(msg.sender);\n            nfts[nftId][userId].isSold = true;\n            emit NftSold(nftId, userId, msg.sender, price , true);\n       }\n    \n      function ownerOfNft(uint256 nftId) public  view returns (address owner) \n       {\n        require(_exists(nftId));\n        return NftOwners[nftId];\n       }\n       \n          \n      function register(address _address, string memory _username, string memory _password,  string memory _bio) public returns(uint) \n        {\n        // require(users[_address].addr == msg.sender);\n        // users[userId] = User(userId, msg.sender,  _username, _password _bio, false);\n        _userId++;  \n         users[_address].id = _userId;\n         users[_address].addr = _address;\n         users[_address].username = _username;\n         users[_address].password = _password;\n         users[_address].bio = _bio;\n         users[_address].ubalance = getBalance(_address);\n         users[_address].isUserLoggedIn = false;\n         emit UserRegister(_userId, _address, _username, _password, _bio, users[_address].ubalance);\n         transferOwnership(_address);\n         nftownaddr = _address;\n         return _userId;\n         }\n\n           \n        function login(address _address, string memory _password) public returns (bool)\n        {\n             require(keccak256(abi.encodePacked(users[_address].password)) == keccak256(abi.encodePacked(_password)) , \"not password equal\");\n              if (keccak256(abi.encodePacked(users[_address].password)) == keccak256(abi.encodePacked(_password)) ) {\n                  users[_address].isUserLoggedIn = true;\n                return (users[_address].isUserLoggedIn);\n                    \n            } else {\n                return false;\n            }\n        }\n        \n            \n        function getUser(address _addr) external view returns (uint256 id, address addr, string memory username, string memory password, string memory bio, uint ubalance, bool isUserLoggedIn) \n        {\n            User storage user = users[_addr];\n            id = user.id;\n            addr = user.addr;\n            username = user.username;\n            password = user.password;\n            bio = user.bio;\n            ubalance = user.ubalance;\n            isUserLoggedIn = user.isUserLoggedIn;\n        }\n        \n        function checkIsUserLogged(address _address) public view returns (bool) \n        {\n            return (users[_address].isUserLoggedIn);\n        }\n\n        function logout(address _address) public \n        {\n            users[_address].isUserLoggedIn = false;\n        }\n            \n    \n}\n",
  "sourcePath": "/Users/erenbekman/Desktop/Blockchain/NFTMarketPlace/contracts/ENFT.sol",
  "compiler": {
    "name": "solc",
    "version": "0.8.2+commit.661d1103.Emscripten.clang"
  },
  "schemaVersion": "3.4.3",
  "updatedAt": "2021-11-15T15:00:09.503Z",
  "networkType": "ethereum",
  "devdoc": {
    "kind": "dev",
    "methods": {
      "balanceOf(address)": {
        "details": "See {IERC721-balanceOf}."
      },
      "getApproved(uint256)": {
        "details": "See {IERC721-getApproved}."
      },
      "isApprovedForAll(address,address)": {
        "details": "See {IERC721-isApprovedForAll}."
      },
      "name()": {
        "details": "See {IERC721Metadata-name}."
      },
      "owner()": {
        "details": "Returns the address of the current owner."
      },
      "ownerOf(uint256)": {
        "details": "See {IERC721-ownerOf}."
      },
      "renounceOwnership()": {
        "details": "Leaves the contract without owner. It will not be possible to call `onlyOwner` functions anymore. Can only be called by the current owner. NOTE: Renouncing ownership will leave the contract without an owner, thereby removing any functionality that is only available to the owner."
      },
      "safeTransferFrom(address,address,uint256)": {
        "details": "See {IERC721-safeTransferFrom}."
      },
      "safeTransferFrom(address,address,uint256,bytes)": {
        "details": "See {IERC721-safeTransferFrom}."
      },
      "setApprovalForAll(address,bool)": {
        "details": "See {IERC721-setApprovalForAll}."
      },
      "supportsInterface(bytes4)": {
        "details": "See {IERC165-supportsInterface}."
      },
      "symbol()": {
        "details": "See {IERC721Metadata-symbol}."
      },
      "tokenURI(uint256)": {
        "details": "See {IERC721Metadata-tokenURI}."
      },
      "transferFrom(address,address,uint256)": {
        "details": "See {IERC721-transferFrom}."
      },
      "transferOwnership(address)": {
        "details": "Transfers ownership of the contract to a new account (`newOwner`). Can only be called by the current owner."
      }
    },
    "version": 1
  },
  "userdoc": {
    "kind": "user",
    "methods": {},
    "version": 1
  }
}