{
  "contractName": "ENFT",
  "abi": [
    {
      "inputs": [],
      "stateMutability": "nonpayable",
      "type": "constructor"
    },
    {
      "anonymous": false,
      "inputs": [
        {
          "indexed": true,
          "internalType": "address",
          "name": "owner",
          "type": "address"
        },
        {
          "indexed": true,
          "internalType": "address",
          "name": "approved",
          "type": "address"
        },
        {
          "indexed": true,
          "internalType": "uint256",
          "name": "tokenId",
          "type": "uint256"
        }
      ],
      "name": "Approval",
      "type": "event"
    },
    {
      "anonymous": false,
      "inputs": [
        {
          "indexed": true,
          "internalType": "address",
          "name": "owner",
          "type": "address"
        },
        {
          "indexed": true,
          "internalType": "address",
          "name": "operator",
          "type": "address"
        },
        {
          "indexed": false,
          "internalType": "bool",
          "name": "approved",
          "type": "bool"
        }
      ],
      "name": "ApprovalForAll",
      "type": "event"
    },
    {
      "anonymous": false,
      "inputs": [
        {
          "indexed": true,
          "internalType": "uint256",
          "name": "nftId",
          "type": "uint256"
        },
        {
          "indexed": false,
          "internalType": "string",
          "name": "name",
          "type": "string"
        },
        {
          "indexed": false,
          "internalType": "string",
          "name": "description",
          "type": "string"
        },
        {
          "indexed": false,
          "internalType": "uint256",
          "name": "price",
          "type": "uint256"
        },
        {
          "indexed": false,
          "internalType": "string",
          "name": "image",
          "type": "string"
        },
        {
          "indexed": false,
          "internalType": "address payable",
          "name": "seller",
          "type": "address"
        },
        {
          "indexed": false,
          "internalType": "address payable",
          "name": "owner",
          "type": "address"
        },
        {
          "indexed": false,
          "internalType": "bool",
          "name": "isSold",
          "type": "bool"
        }
      ],
      "name": "NFTCreated",
      "type": "event"
    },
    {
      "anonymous": false,
      "inputs": [
        {
          "indexed": false,
          "internalType": "uint256",
          "name": "nftId",
          "type": "uint256"
        },
        {
          "indexed": true,
          "internalType": "address",
          "name": "buyer",
          "type": "address"
        },
        {
          "indexed": false,
          "internalType": "uint256",
          "name": "price",
          "type": "uint256"
        }
      ],
      "name": "NftSold",
      "type": "event"
    },
    {
      "anonymous": false,
      "inputs": [
        {
          "indexed": true,
          "internalType": "address",
          "name": "previousOwner",
          "type": "address"
        },
        {
          "indexed": true,
          "internalType": "address",
          "name": "newOwner",
          "type": "address"
        }
      ],
      "name": "OwnershipTransferred",
      "type": "event"
    },
    {
      "anonymous": false,
      "inputs": [
        {
          "indexed": true,
          "internalType": "address",
          "name": "from",
          "type": "address"
        },
        {
          "indexed": true,
          "internalType": "address",
          "name": "to",
          "type": "address"
        },
        {
          "indexed": true,
          "internalType": "uint256",
          "name": "tokenId",
          "type": "uint256"
        }
      ],
      "name": "Transfer",
      "type": "event"
    },
    {
      "inputs": [
        {
          "internalType": "uint256",
          "name": "tokenId",
          "type": "uint256"
        }
      ],
      "name": "getApproved",
      "outputs": [
        {
          "internalType": "address",
          "name": "",
          "type": "address"
        }
      ],
      "stateMutability": "view",
      "type": "function",
      "constant": true
    },
    {
      "inputs": [
        {
          "internalType": "address",
          "name": "owner",
          "type": "address"
        },
        {
          "internalType": "address",
          "name": "operator",
          "type": "address"
        }
      ],
      "name": "isApprovedForAll",
      "outputs": [
        {
          "internalType": "bool",
          "name": "",
          "type": "bool"
        }
      ],
      "stateMutability": "view",
      "type": "function",
      "constant": true
    },
    {
      "inputs": [],
      "name": "name",
      "outputs": [
        {
          "internalType": "string",
          "name": "",
          "type": "string"
        }
      ],
      "stateMutability": "view",
      "type": "function",
      "constant": true
    },
    {
      "inputs": [
        {
          "internalType": "uint256",
          "name": "",
          "type": "uint256"
        }
      ],
      "name": "nfts",
      "outputs": [
        {
          "internalType": "uint256",
          "name": "nftId",
          "type": "uint256"
        },
        {
          "internalType": "string",
          "name": "name",
          "type": "string"
        },
        {
          "internalType": "string",
          "name": "description",
          "type": "string"
        },
        {
          "internalType": "uint256",
          "name": "price",
          "type": "uint256"
        },
        {
          "internalType": "string",
          "name": "image",
          "type": "string"
        },
        {
          "internalType": "address payable",
          "name": "seller",
          "type": "address"
        },
        {
          "internalType": "address payable",
          "name": "owner",
          "type": "address"
        },
        {
          "internalType": "bool",
          "name": "isSold",
          "type": "bool"
        }
      ],
      "stateMutability": "view",
      "type": "function",
      "constant": true
    },
    {
      "inputs": [],
      "name": "owner",
      "outputs": [
        {
          "internalType": "address",
          "name": "",
          "type": "address"
        }
      ],
      "stateMutability": "view",
      "type": "function",
      "constant": true
    },
    {
      "inputs": [
        {
          "internalType": "uint256",
          "name": "tokenId",
          "type": "uint256"
        }
      ],
      "name": "ownerOf",
      "outputs": [
        {
          "internalType": "address",
          "name": "",
          "type": "address"
        }
      ],
      "stateMutability": "view",
      "type": "function",
      "constant": true
    },
    {
      "inputs": [],
      "name": "renounceOwnership",
      "outputs": [],
      "stateMutability": "nonpayable",
      "type": "function"
    },
    {
      "inputs": [
        {
          "internalType": "address",
          "name": "from",
          "type": "address"
        },
        {
          "internalType": "address",
          "name": "to",
          "type": "address"
        },
        {
          "internalType": "uint256",
          "name": "tokenId",
          "type": "uint256"
        }
      ],
      "name": "safeTransferFrom",
      "outputs": [],
      "stateMutability": "nonpayable",
      "type": "function"
    },
    {
      "inputs": [
        {
          "internalType": "address",
          "name": "from",
          "type": "address"
        },
        {
          "internalType": "address",
          "name": "to",
          "type": "address"
        },
        {
          "internalType": "uint256",
          "name": "tokenId",
          "type": "uint256"
        },
        {
          "internalType": "bytes",
          "name": "_data",
          "type": "bytes"
        }
      ],
      "name": "safeTransferFrom",
      "outputs": [],
      "stateMutability": "nonpayable",
      "type": "function"
    },
    {
      "inputs": [
        {
          "internalType": "address",
          "name": "operator",
          "type": "address"
        },
        {
          "internalType": "bool",
          "name": "approved",
          "type": "bool"
        }
      ],
      "name": "setApprovalForAll",
      "outputs": [],
      "stateMutability": "nonpayable",
      "type": "function"
    },
    {
      "inputs": [
        {
          "internalType": "bytes4",
          "name": "interfaceId",
          "type": "bytes4"
        }
      ],
      "name": "supportsInterface",
      "outputs": [
        {
          "internalType": "bool",
          "name": "",
          "type": "bool"
        }
      ],
      "stateMutability": "view",
      "type": "function",
      "constant": true
    },
    {
      "inputs": [],
      "name": "symbol",
      "outputs": [
        {
          "internalType": "string",
          "name": "",
          "type": "string"
        }
      ],
      "stateMutability": "view",
      "type": "function",
      "constant": true
    },
    {
      "inputs": [
        {
          "internalType": "uint256",
          "name": "tokenId",
          "type": "uint256"
        }
      ],
      "name": "tokenURI",
      "outputs": [
        {
          "internalType": "string",
          "name": "",
          "type": "string"
        }
      ],
      "stateMutability": "view",
      "type": "function",
      "constant": true
    },
    {
      "inputs": [
        {
          "internalType": "address",
          "name": "from",
          "type": "address"
        },
        {
          "internalType": "address",
          "name": "to",
          "type": "address"
        },
        {
          "internalType": "uint256",
          "name": "tokenId",
          "type": "uint256"
        }
      ],
      "name": "transferFrom",
      "outputs": [],
      "stateMutability": "nonpayable",
      "type": "function"
    },
    {
      "inputs": [
        {
          "internalType": "address",
          "name": "newOwner",
          "type": "address"
        }
      ],
      "name": "transferOwnership",
      "outputs": [],
      "stateMutability": "nonpayable",
      "type": "function"
    },
    {
      "inputs": [
        {
          "internalType": "address",
          "name": "owner",
          "type": "address"
        }
      ],
      "name": "balanceOf",
      "outputs": [
        {
          "internalType": "uint256",
          "name": "balance",
          "type": "uint256"
        }
      ],
      "stateMutability": "view",
      "type": "function",
      "constant": true
    },
    {
      "inputs": [],
      "name": "totalSupply",
      "outputs": [
        {
          "internalType": "uint256",
          "name": "",
          "type": "uint256"
        }
      ],
      "stateMutability": "view",
      "type": "function",
      "constant": true
    },
    {
      "inputs": [
        {
          "internalType": "address",
          "name": "_to",
          "type": "address"
        },
        {
          "internalType": "uint256",
          "name": "nftId",
          "type": "uint256"
        }
      ],
      "name": "approve",
      "outputs": [],
      "stateMutability": "nonpayable",
      "type": "function"
    },
    {
      "inputs": [
        {
          "internalType": "string",
          "name": "tokenUR",
          "type": "string"
        },
        {
          "internalType": "string",
          "name": "name",
          "type": "string"
        },
        {
          "internalType": "string",
          "name": "description",
          "type": "string"
        },
        {
          "internalType": "uint256",
          "name": "price",
          "type": "uint256"
        },
        {
          "internalType": "string",
          "name": "image",
          "type": "string"
        }
      ],
      "name": "mintNft",
      "outputs": [
        {
          "internalType": "uint256",
          "name": "",
          "type": "uint256"
        }
      ],
      "stateMutability": "nonpayable",
      "type": "function"
    },
    {
      "inputs": [
        {
          "internalType": "uint256",
          "name": "nftId",
          "type": "uint256"
        }
      ],
      "name": "getNftItem",
      "outputs": [
        {
          "internalType": "uint256",
          "name": "id",
          "type": "uint256"
        },
        {
          "internalType": "string",
          "name": "name",
          "type": "string"
        },
        {
          "internalType": "string",
          "name": "description",
          "type": "string"
        },
        {
          "internalType": "uint256",
          "name": "price",
          "type": "uint256"
        },
        {
          "internalType": "string",
          "name": "image",
          "type": "string"
        },
        {
          "internalType": "address",
          "name": "seller",
          "type": "address"
        },
        {
          "internalType": "address",
          "name": "owner",
          "type": "address"
        },
        {
          "internalType": "bool",
          "name": "isSold",
          "type": "bool"
        }
      ],
      "stateMutability": "view",
      "type": "function",
      "constant": true
    },
    {
      "inputs": [
        {
          "internalType": "uint256",
          "name": "nftId",
          "type": "uint256"
        }
      ],
      "name": "SaleNft",
      "outputs": [],
      "stateMutability": "payable",
      "type": "function",
      "payable": true
    },
    {
      "inputs": [
        {
          "internalType": "uint256",
          "name": "nftId",
          "type": "uint256"
        }
      ],
      "name": "ownerOfNft",
      "outputs": [
        {
          "internalType": "address",
          "name": "owner",
          "type": "address"
        }
      ],
      "stateMutability": "view",
      "type": "function",
      "constant": true
    }
  ],
  "bytecode": "0x60806040523480156200001157600080fd5b506040518060400160405280600481526020017f454e4654000000000000000000000000000000000000000000000000000000008152506040518060400160405280600481526020017f454e465400000000000000000000000000000000000000000000000000000000815250816000908051906020019062000096929190620001e7565b508060019080519060200190620000af929190620001e7565b505050620000d2620000c66200011960201b60201c565b6200012160201b60201c565b33600d60006101000a81548173ffffffffffffffffffffffffffffffffffffffff021916908373ffffffffffffffffffffffffffffffffffffffff160217905550620002fc565b600033905090565b6000600760009054906101000a900473ffffffffffffffffffffffffffffffffffffffff16905081600760006101000a81548173ffffffffffffffffffffffffffffffffffffffff021916908373ffffffffffffffffffffffffffffffffffffffff1602179055508173ffffffffffffffffffffffffffffffffffffffff168173ffffffffffffffffffffffffffffffffffffffff167f8be0079c531659141344cd1fd0a4f28419497f9722a3daafe3b4186f6b6457e060405160405180910390a35050565b828054620001f59062000297565b90600052602060002090601f01602090048101928262000219576000855562000265565b82601f106200023457805160ff191683800117855562000265565b8280016001018555821562000265579182015b828111156200026457825182559160200191906001019062000247565b5b50905062000274919062000278565b5090565b5b808211156200029357600081600090555060010162000279565b5090565b60006002820490506001821680620002b057607f821691505b60208210811415620002c757620002c6620002cd565b5b50919050565b7f4e487b7100000000000000000000000000000000000000000000000000000000600052602260045260246000fd5b613e34806200030c6000396000f3fe6080604052600436106101355760003560e01c8063715018a6116100ab578063b33e7c8c1161006f578063b33e7c8c14610439578063b88d4fde14610476578063b922f94c1461049f578063c87b56dd146104dc578063e985e9c514610519578063f2fde38b1461055657610135565b8063715018a6146103875780637354daf91461039e5780638da5cb5b146103ba57806395d89b41146103e5578063a22cb4651461041057610135565b806323b872dd116100fd57806323b872dd14610233578063265aa6211461025c57806342842e0e146102a05780636352211e146102c95780636f1a0af51461030657806370a082311461034a57610135565b806301ffc9a71461013a57806306fdde0314610177578063081812fc146101a2578063095ea7b3146101df57806318160ddd14610208575b600080fd5b34801561014657600080fd5b50610161600480360381019061015c9190612b64565b61057f565b60405161016e9190613096565b60405180910390f35b34801561018357600080fd5b5061018c610661565b60405161019991906130b1565b60405180910390f35b3480156101ae57600080fd5b506101c960048036038101906101c49190612c8d565b6106f3565b6040516101d6919061302f565b60405180910390f35b3480156101eb57600080fd5b5061020660048036038101906102019190612b28565b610778565b005b34801561021457600080fd5b5061021d6108d1565b60405161022a9190613397565b60405180910390f35b34801561023f57600080fd5b5061025a60048036038101906102559190612a22565b6108e2565b005b34801561026857600080fd5b50610283600480360381019061027e9190612c8d565b610942565b6040516102979897969594939291906133b2565b60405180910390f35b3480156102ac57600080fd5b506102c760048036038101906102c29190612a22565b610b6f565b005b3480156102d557600080fd5b506102f060048036038101906102eb9190612c8d565b610b8f565b6040516102fd919061302f565b60405180910390f35b34801561031257600080fd5b5061032d60048036038101906103289190612c8d565b610c41565b604051610341989796959493929190613445565b60405180910390f35b34801561035657600080fd5b50610371600480360381019061036c91906129bd565b610ed7565b60405161037e9190613397565b60405180910390f35b34801561039357600080fd5b5061039c610f20565b005b6103b860048036038101906103b39190612c8d565b610fa8565b005b3480156103c657600080fd5b506103cf6111dc565b6040516103dc919061302f565b60405180910390f35b3480156103f157600080fd5b506103fa611206565b60405161040791906130b1565b60405180910390f35b34801561041c57600080fd5b5061043760048036038101906104329190612aec565b611298565b005b34801561044557600080fd5b50610460600480360381019061045b9190612bb6565b611419565b60405161046d9190613397565b60405180910390f35b34801561048257600080fd5b5061049d60048036038101906104989190612a71565b611766565b005b3480156104ab57600080fd5b506104c660048036038101906104c19190612c8d565b6117c8565b6040516104d3919061302f565b60405180910390f35b3480156104e857600080fd5b5061050360048036038101906104fe9190612c8d565b611817565b60405161051091906130b1565b60405180910390f35b34801561052557600080fd5b50610540600480360381019061053b91906129e6565b611969565b60405161054d9190613096565b60405180910390f35b34801561056257600080fd5b5061057d600480360381019061057891906129bd565b6119fd565b005b60007f80ac58cd000000000000000000000000000000000000000000000000000000007bffffffffffffffffffffffffffffffffffffffffffffffffffffffff1916827bffffffffffffffffffffffffffffffffffffffffffffffffffffffff1916148061064a57507f5b5e139f000000000000000000000000000000000000000000000000000000007bffffffffffffffffffffffffffffffffffffffffffffffffffffffff1916827bffffffffffffffffffffffffffffffffffffffffffffffffffffffff1916145b8061065a575061065982611af5565b5b9050919050565b6060600080546106709061374e565b80601f016020809104026020016040519081016040528092919081815260200182805461069c9061374e565b80156106e95780601f106106be576101008083540402835291602001916106e9565b820191906000526020600020905b8154815290600101906020018083116106cc57829003601f168201915b5050505050905090565b60006106fe82611b5f565b61073d576040517f08c379a0000000000000000000000000000000000000000000000000000000008152600401610734906132b7565b60405180910390fd5b6004600083815260200190815260200160002060009054906101000a900473ffffffffffffffffffffffffffffffffffffffff169050919050565b61078181610b8f565b73ffffffffffffffffffffffffffffffffffffffff163373ffffffffffffffffffffffffffffffffffffffff16146107b857600080fd5b8173ffffffffffffffffffffffffffffffffffffffff163373ffffffffffffffffffffffffffffffffffffffff1614156107f157600080fd5b80600c60003373ffffffffffffffffffffffffffffffffffffffff1673ffffffffffffffffffffffffffffffffffffffff16815260200190815260200160002060008473ffffffffffffffffffffffffffffffffffffffff1673ffffffffffffffffffffffffffffffffffffffff16815260200190815260200160002081905550808273ffffffffffffffffffffffffffffffffffffffff163373ffffffffffffffffffffffffffffffffffffffff167f8c5be1e5ebec7d5bd14f71427d1e84f3dd0314c0f7b2291e5b200ac8c7c3b92560405160405180910390a45050565b60006108dd6008611bcb565b905090565b6108f36108ed611bd9565b82611be1565b610932576040517f08c379a000000000000000000000000000000000000000000000000000000000815260040161092990613337565b60405180910390fd5b61093d838383611cbf565b505050565b600960205280600052604060002060009150905080600001549080600101805461096b9061374e565b80601f01602080910402602001604051908101604052809291908181526020018280546109979061374e565b80156109e45780601f106109b9576101008083540402835291602001916109e4565b820191906000526020600020905b8154815290600101906020018083116109c757829003601f168201915b5050505050908060020180546109f99061374e565b80601f0160208091040260200160405190810160405280929190818152602001828054610a259061374e565b8015610a725780601f10610a4757610100808354040283529160200191610a72565b820191906000526020600020905b815481529060010190602001808311610a5557829003601f168201915b505050505090806003015490806004018054610a8d9061374e565b80601f0160208091040260200160405190810160405280929190818152602001828054610ab99061374e565b8015610b065780601f10610adb57610100808354040283529160200191610b06565b820191906000526020600020905b815481529060010190602001808311610ae957829003601f168201915b5050505050908060050160009054906101000a900473ffffffffffffffffffffffffffffffffffffffff16908060060160009054906101000a900473ffffffffffffffffffffffffffffffffffffffff16908060060160149054906101000a900460ff16905088565b610b8a83838360405180602001604052806000815250611766565b505050565b6000806002600084815260200190815260200160002060009054906101000a900473ffffffffffffffffffffffffffffffffffffffff169050600073ffffffffffffffffffffffffffffffffffffffff168173ffffffffffffffffffffffffffffffffffffffff161415610c38576040517f08c379a0000000000000000000000000000000000000000000000000000000008152600401610c2f90613217565b60405180910390fd5b80915050919050565b6000606080600060606000806000610c5889611b5f565b610c97576040517f08c379a0000000000000000000000000000000000000000000000000000000008152600401610c8e90613357565b60405180910390fd5b6000600960008b8152602001908152602001600020905080600001549850806001018054610cc49061374e565b80601f0160208091040260200160405190810160405280929190818152602001828054610cf09061374e565b8015610d3d5780601f10610d1257610100808354040283529160200191610d3d565b820191906000526020600020905b815481529060010190602001808311610d2057829003601f168201915b50505050509750806002018054610d539061374e565b80601f0160208091040260200160405190810160405280929190818152602001828054610d7f9061374e565b8015610dcc5780601f10610da157610100808354040283529160200191610dcc565b820191906000526020600020905b815481529060010190602001808311610daf57829003601f168201915b5050505050965080600301549550806004018054610de99061374e565b80601f0160208091040260200160405190810160405280929190818152602001828054610e159061374e565b8015610e625780601f10610e3757610100808354040283529160200191610e62565b820191906000526020600020905b815481529060010190602001808311610e4557829003601f168201915b505050505094508060050160009054906101000a900473ffffffffffffffffffffffffffffffffffffffff1693508060060160009054906101000a900473ffffffffffffffffffffffffffffffffffffffff1692508060060160149054906101000a900460ff16915050919395975091939597565b6000600a60008373ffffffffffffffffffffffffffffffffffffffff1673ffffffffffffffffffffffffffffffffffffffff168152602001908152602001600020549050919050565b610f28611bd9565b73ffffffffffffffffffffffffffffffffffffffff16610f466111dc565b73ffffffffffffffffffffffffffffffffffffffff1614610f9c576040517f08c379a0000000000000000000000000000000000000000000000000000000008152600401610f93906132d7565b60405180910390fd5b610fa66000611f1b565b565b80600015156009600083815260200190815260200160002060060160149054906101000a900460ff16151514611013576040517f08c379a000000000000000000000000000000000000000000000000000000000815260040161100a90613377565b60405180910390fd5b600060096000848152602001908152602001600020600301549050803414611070576040517f08c379a000000000000000000000000000000000000000000000000000000000815260040161106790613257565b60405180910390fd5b6009600084815260200190815260200160002060050160009054906101000a900473ffffffffffffffffffffffffffffffffffffffff1673ffffffffffffffffffffffffffffffffffffffff166108fc349081150290604051600060405180830381858888f193505050501580156110ec573d6000803e3d6000fd5b50336009600085815260200190815260200160002060060160006101000a81548173ffffffffffffffffffffffffffffffffffffffff021916908373ffffffffffffffffffffffffffffffffffffffff16021790555060016009600085815260200190815260200160002060060160146101000a81548160ff0219169083151502179055503373ffffffffffffffffffffffffffffffffffffffff167f410787feaee69e25111c916ccc79ee0fb3dd27b169bcb00209efdd59c5148f368460096000878152602001908152602001600020600301546040516111cf9291906134d8565b60405180910390a2505050565b6000600760009054906101000a900473ffffffffffffffffffffffffffffffffffffffff16905090565b6060600180546112159061374e565b80601f01602080910402602001604051908101604052809291908181526020018280546112419061374e565b801561128e5780601f106112635761010080835404028352916020019161128e565b820191906000526020600020905b81548152906001019060200180831161127157829003601f168201915b5050505050905090565b6112a0611bd9565b73ffffffffffffffffffffffffffffffffffffffff168273ffffffffffffffffffffffffffffffffffffffff16141561130e576040517f08c379a0000000000000000000000000000000000000000000000000000000008152600401611305906131d7565b60405180910390fd5b806005600061131b611bd9565b73ffffffffffffffffffffffffffffffffffffffff1673ffffffffffffffffffffffffffffffffffffffff16815260200190815260200160002060008473ffffffffffffffffffffffffffffffffffffffff1673ffffffffffffffffffffffffffffffffffffffff16815260200190815260200160002060006101000a81548160ff0219169083151502179055508173ffffffffffffffffffffffffffffffffffffffff166113c8611bd9565b73ffffffffffffffffffffffffffffffffffffffff167f17307eab39ab6107e8899845ad3d59bd9653f200f220920489ca2b5937696c318360405161140d9190613096565b60405180910390a35050565b6000611423611bd9565b73ffffffffffffffffffffffffffffffffffffffff166114416111dc565b73ffffffffffffffffffffffffffffffffffffffff1614611497576040517f08c379a000000000000000000000000000000000000000000000000000000000815260040161148e906132d7565b60405180910390fd5b3373ffffffffffffffffffffffffffffffffffffffff16600d60009054906101000a900473ffffffffffffffffffffffffffffffffffffffff1673ffffffffffffffffffffffffffffffffffffffff16146114f157600080fd5b600083116114fe57600080fd5b600061150a6008611bcb565b90506115163382611fe1565b6115208188611fff565b6040518061010001604052808281526020018781526020018681526020018581526020018481526020013373ffffffffffffffffffffffffffffffffffffffff1681526020013073ffffffffffffffffffffffffffffffffffffffff16815260200160001515815250600960008381526020019081526020016000206000820151816000015560208201518160010190805190602001906115c29291906127e1565b5060408201518160020190805190602001906115df9291906127e1565b506060820151816003015560808201518160040190805190602001906116069291906127e1565b5060a08201518160050160006101000a81548173ffffffffffffffffffffffffffffffffffffffff021916908373ffffffffffffffffffffffffffffffffffffffff16021790555060c08201518160060160006101000a81548173ffffffffffffffffffffffffffffffffffffffff021916908373ffffffffffffffffffffffffffffffffffffffff16021790555060e08201518160060160146101000a81548160ff02191690831515021790555090505033600b600083815260200190815260200160002060006101000a81548173ffffffffffffffffffffffffffffffffffffffff021916908373ffffffffffffffffffffffffffffffffffffffff1602179055506117146008612073565b807f54e4f34aa4090c02a5d57852cda7e9100e5de2f844e9729724b324a61b067252878787873330600060405161175197969594939291906130d3565b60405180910390a28091505095945050505050565b611777611771611bd9565b83611be1565b6117b6576040517f08c379a00000000000000000000000000000000000000000000000000000000081526004016117ad90613337565b60405180910390fd5b6117c284848484612089565b50505050565b60006117d382611b5f565b6117dc57600080fd5b600b600083815260200190815260200160002060009054906101000a900473ffffffffffffffffffffffffffffffffffffffff169050919050565b606061182282611b5f565b611861576040517f08c379a000000000000000000000000000000000000000000000000000000000815260040161185890613297565b60405180910390fd5b60006006600084815260200190815260200160002080546118819061374e565b80601f01602080910402602001604051908101604052809291908181526020018280546118ad9061374e565b80156118fa5780601f106118cf576101008083540402835291602001916118fa565b820191906000526020600020905b8154815290600101906020018083116118dd57829003601f168201915b50505050509050600061190b6120e5565b9050600081511415611921578192505050611964565b60008251111561195657808260405160200161193e92919061300b565b60405160208183030381529060405292505050611964565b61195f846120fc565b925050505b919050565b6000600560008473ffffffffffffffffffffffffffffffffffffffff1673ffffffffffffffffffffffffffffffffffffffff16815260200190815260200160002060008373ffffffffffffffffffffffffffffffffffffffff1673ffffffffffffffffffffffffffffffffffffffff16815260200190815260200160002060009054906101000a900460ff16905092915050565b611a05611bd9565b73ffffffffffffffffffffffffffffffffffffffff16611a236111dc565b73ffffffffffffffffffffffffffffffffffffffff1614611a79576040517f08c379a0000000000000000000000000000000000000000000000000000000008152600401611a70906132d7565b60405180910390fd5b600073ffffffffffffffffffffffffffffffffffffffff168173ffffffffffffffffffffffffffffffffffffffff161415611ae9576040517f08c379a0000000000000000000000000000000000000000000000000000000008152600401611ae090613177565b60405180910390fd5b611af281611f1b565b50565b60007f01ffc9a7000000000000000000000000000000000000000000000000000000007bffffffffffffffffffffffffffffffffffffffffffffffffffffffff1916827bffffffffffffffffffffffffffffffffffffffffffffffffffffffff1916149050919050565b60008073ffffffffffffffffffffffffffffffffffffffff166002600084815260200190815260200160002060009054906101000a900473ffffffffffffffffffffffffffffffffffffffff1673ffffffffffffffffffffffffffffffffffffffff1614159050919050565b600081600001549050919050565b600033905090565b6000611bec82611b5f565b611c2b576040517f08c379a0000000000000000000000000000000000000000000000000000000008152600401611c22906131f7565b60405180910390fd5b6000611c3683610b8f565b90508073ffffffffffffffffffffffffffffffffffffffff168473ffffffffffffffffffffffffffffffffffffffff161480611ca557508373ffffffffffffffffffffffffffffffffffffffff16611c8d846106f3565b73ffffffffffffffffffffffffffffffffffffffff16145b80611cb65750611cb58185611969565b5b91505092915050565b8273ffffffffffffffffffffffffffffffffffffffff16611cdf82610b8f565b73ffffffffffffffffffffffffffffffffffffffff1614611d35576040517f08c379a0000000000000000000000000000000000000000000000000000000008152600401611d2c906132f7565b60405180910390fd5b600073ffffffffffffffffffffffffffffffffffffffff168273ffffffffffffffffffffffffffffffffffffffff161415611da5576040517f08c379a0000000000000000000000000000000000000000000000000000000008152600401611d9c906131b7565b60405180910390fd5b611db08383836121a3565b611dbb6000826121a8565b6001600360008573ffffffffffffffffffffffffffffffffffffffff1673ffffffffffffffffffffffffffffffffffffffff1681526020019081526020016000206000828254611e0b9190613652565b925050819055506001600360008473ffffffffffffffffffffffffffffffffffffffff1673ffffffffffffffffffffffffffffffffffffffff1681526020019081526020016000206000828254611e6291906135cb565b92505081905550816002600083815260200190815260200160002060006101000a81548173ffffffffffffffffffffffffffffffffffffffff021916908373ffffffffffffffffffffffffffffffffffffffff160217905550808273ffffffffffffffffffffffffffffffffffffffff168473ffffffffffffffffffffffffffffffffffffffff167fddf252ad1be2c89b69c2b068fc378daa952ba7f163c4a11628f55a4df523b3ef60405160405180910390a4505050565b6000600760009054906101000a900473ffffffffffffffffffffffffffffffffffffffff16905081600760006101000a81548173ffffffffffffffffffffffffffffffffffffffff021916908373ffffffffffffffffffffffffffffffffffffffff1602179055508173ffffffffffffffffffffffffffffffffffffffff168173ffffffffffffffffffffffffffffffffffffffff167f8be0079c531659141344cd1fd0a4f28419497f9722a3daafe3b4186f6b6457e060405160405180910390a35050565b611ffb828260405180602001604052806000815250612261565b5050565b61200882611b5f565b612047576040517f08c379a000000000000000000000000000000000000000000000000000000000815260040161203e90613237565b60405180910390fd5b8060066000848152602001908152602001600020908051906020019061206e9291906127e1565b505050565b6001816000016000828254019250508190555050565b612094848484611cbf565b6120a0848484846122bc565b6120df576040517f08c379a00000000000000000000000000000000000000000000000000000000081526004016120d690613157565b60405180910390fd5b50505050565b606060405180602001604052806000815250905090565b606061210782611b5f565b612146576040517f08c379a000000000000000000000000000000000000000000000000000000000815260040161213d90613317565b60405180910390fd5b60006121506120e5565b90506000815111612170576040518060200160405280600081525061219b565b8061217a84612453565b60405160200161218b92919061300b565b6040516020818303038152906040525b915050919050565b505050565b816004600083815260200190815260200160002060006101000a81548173ffffffffffffffffffffffffffffffffffffffff021916908373ffffffffffffffffffffffffffffffffffffffff160217905550808273ffffffffffffffffffffffffffffffffffffffff1661221b83610b8f565b73ffffffffffffffffffffffffffffffffffffffff167f8c5be1e5ebec7d5bd14f71427d1e84f3dd0314c0f7b2291e5b200ac8c7c3b92560405160405180910390a45050565b61226b8383612600565b61227860008484846122bc565b6122b7576040517f08c379a00000000000000000000000000000000000000000000000000000000081526004016122ae90613157565b60405180910390fd5b505050565b60006122dd8473ffffffffffffffffffffffffffffffffffffffff166127ce565b15612446578373ffffffffffffffffffffffffffffffffffffffff1663150b7a02612306611bd9565b8786866040518563ffffffff1660e01b8152600401612328949392919061304a565b602060405180830381600087803b15801561234257600080fd5b505af192505050801561237357506040513d601f19601f820116820180604052508101906123709190612b8d565b60015b6123f6573d80600081146123a3576040519150601f19603f3d011682016040523d82523d6000602084013e6123a8565b606091505b506000815114156123ee576040517f08c379a00000000000000000000000000000000000000000000000000000000081526004016123e590613157565b60405180910390fd5b805181602001fd5b63150b7a0260e01b7bffffffffffffffffffffffffffffffffffffffffffffffffffffffff1916817bffffffffffffffffffffffffffffffffffffffffffffffffffffffff19161491505061244b565b600190505b949350505050565b6060600082141561249b576040518060400160405280600181526020017f300000000000000000000000000000000000000000000000000000000000000081525090506125fb565b600082905060005b600082146124cd5780806124b6906137b1565b915050600a826124c69190613621565b91506124a3565b60008167ffffffffffffffff81111561250f577f4e487b7100000000000000000000000000000000000000000000000000000000600052604160045260246000fd5b6040519080825280601f01601f1916602001820160405280156125415781602001600182028036833780820191505090505b5090505b600085146125f45760018261255a9190613652565b9150600a8561256991906137fa565b603061257591906135cb565b60f81b8183815181106125b1577f4e487b7100000000000000000000000000000000000000000000000000000000600052603260045260246000fd5b60200101907effffffffffffffffffffffffffffffffffffffffffffffffffffffffffffff1916908160001a905350600a856125ed9190613621565b9450612545565b8093505050505b919050565b600073ffffffffffffffffffffffffffffffffffffffff168273ffffffffffffffffffffffffffffffffffffffff161415612670576040517f08c379a000000000000000000000000000000000000000000000000000000000815260040161266790613277565b60405180910390fd5b61267981611b5f565b156126b9576040517f08c379a00000000000000000000000000000000000000000000000000000000081526004016126b090613197565b60405180910390fd5b6126c5600083836121a3565b6001600360008473ffffffffffffffffffffffffffffffffffffffff1673ffffffffffffffffffffffffffffffffffffffff168152602001908152602001600020600082825461271591906135cb565b92505081905550816002600083815260200190815260200160002060006101000a81548173ffffffffffffffffffffffffffffffffffffffff021916908373ffffffffffffffffffffffffffffffffffffffff160217905550808273ffffffffffffffffffffffffffffffffffffffff16600073ffffffffffffffffffffffffffffffffffffffff167fddf252ad1be2c89b69c2b068fc378daa952ba7f163c4a11628f55a4df523b3ef60405160405180910390a45050565b600080823b905060008111915050919050565b8280546127ed9061374e565b90600052602060002090601f01602090048101928261280f5760008555612856565b82601f1061282857805160ff1916838001178555612856565b82800160010185558215612856579182015b8281111561285557825182559160200191906001019061283a565b5b5090506128639190612867565b5090565b5b80821115612880576000816000905550600101612868565b5090565b600061289761289284613526565b613501565b9050828152602081018484840111156128af57600080fd5b6128ba84828561370c565b509392505050565b60006128d56128d084613557565b613501565b9050828152602081018484840111156128ed57600080fd5b6128f884828561370c565b509392505050565b60008135905061290f81613da2565b92915050565b60008135905061292481613db9565b92915050565b60008135905061293981613dd0565b92915050565b60008151905061294e81613dd0565b92915050565b600082601f83011261296557600080fd5b8135612975848260208601612884565b91505092915050565b600082601f83011261298f57600080fd5b813561299f8482602086016128c2565b91505092915050565b6000813590506129b781613de7565b92915050565b6000602082840312156129cf57600080fd5b60006129dd84828501612900565b91505092915050565b600080604083850312156129f957600080fd5b6000612a0785828601612900565b9250506020612a1885828601612900565b9150509250929050565b600080600060608486031215612a3757600080fd5b6000612a4586828701612900565b9350506020612a5686828701612900565b9250506040612a67868287016129a8565b9150509250925092565b60008060008060808587031215612a8757600080fd5b6000612a9587828801612900565b9450506020612aa687828801612900565b9350506040612ab7878288016129a8565b925050606085013567ffffffffffffffff811115612ad457600080fd5b612ae087828801612954565b91505092959194509250565b60008060408385031215612aff57600080fd5b6000612b0d85828601612900565b9250506020612b1e85828601612915565b9150509250929050565b60008060408385031215612b3b57600080fd5b6000612b4985828601612900565b9250506020612b5a858286016129a8565b9150509250929050565b600060208284031215612b7657600080fd5b6000612b848482850161292a565b91505092915050565b600060208284031215612b9f57600080fd5b6000612bad8482850161293f565b91505092915050565b600080600080600060a08688031215612bce57600080fd5b600086013567ffffffffffffffff811115612be857600080fd5b612bf48882890161297e565b955050602086013567ffffffffffffffff811115612c1157600080fd5b612c1d8882890161297e565b945050604086013567ffffffffffffffff811115612c3a57600080fd5b612c468882890161297e565b9350506060612c57888289016129a8565b925050608086013567ffffffffffffffff811115612c7457600080fd5b612c808882890161297e565b9150509295509295909350565b600060208284031215612c9f57600080fd5b6000612cad848285016129a8565b91505092915050565b612cbf81613698565b82525050565b612cce81613686565b82525050565b612cdd816136aa565b82525050565b6000612cee82613588565b612cf8818561359e565b9350612d0881856020860161371b565b612d11816138e7565b840191505092915050565b6000612d2782613593565b612d3181856135af565b9350612d4181856020860161371b565b612d4a816138e7565b840191505092915050565b6000612d6082613593565b612d6a81856135c0565b9350612d7a81856020860161371b565b80840191505092915050565b6000612d936032836135af565b9150612d9e826138f8565b604082019050919050565b6000612db66026836135af565b9150612dc182613947565b604082019050919050565b6000612dd9601c836135af565b9150612de482613996565b602082019050919050565b6000612dfc6024836135af565b9150612e07826139bf565b604082019050919050565b6000612e1f6019836135af565b9150612e2a82613a0e565b602082019050919050565b6000612e42602c836135af565b9150612e4d82613a37565b604082019050919050565b6000612e656029836135af565b9150612e7082613a86565b604082019050919050565b6000612e88602e836135af565b9150612e9382613ad5565b604082019050919050565b6000612eab6040836135af565b9150612eb682613b24565b604082019050919050565b6000612ece6020836135af565b9150612ed982613b73565b602082019050919050565b6000612ef16031836135af565b9150612efc82613b9c565b604082019050919050565b6000612f14602c836135af565b9150612f1f82613beb565b604082019050919050565b6000612f376020836135af565b9150612f4282613c3a565b602082019050919050565b6000612f5a6029836135af565b9150612f6582613c63565b604082019050919050565b6000612f7d602f836135af565b9150612f8882613cb2565b604082019050919050565b6000612fa06031836135af565b9150612fab82613d01565b604082019050919050565b6000612fc36010836135af565b9150612fce82613d50565b602082019050919050565b6000612fe66019836135af565b9150612ff182613d79565b602082019050919050565b61300581613702565b82525050565b60006130178285612d55565b91506130238284612d55565b91508190509392505050565b60006020820190506130446000830184612cc5565b92915050565b600060808201905061305f6000830187612cc5565b61306c6020830186612cc5565b6130796040830185612ffc565b818103606083015261308b8184612ce3565b905095945050505050565b60006020820190506130ab6000830184612cd4565b92915050565b600060208201905081810360008301526130cb8184612d1c565b905092915050565b600060e08201905081810360008301526130ed818a612d1c565b905081810360208301526131018189612d1c565b90506131106040830188612ffc565b81810360608301526131228187612d1c565b90506131316080830186612cb6565b61313e60a0830185612cb6565b61314b60c0830184612cd4565b98975050505050505050565b6000602082019050818103600083015261317081612d86565b9050919050565b6000602082019050818103600083015261319081612da9565b9050919050565b600060208201905081810360008301526131b081612dcc565b9050919050565b600060208201905081810360008301526131d081612def565b9050919050565b600060208201905081810360008301526131f081612e12565b9050919050565b6000602082019050818103600083015261321081612e35565b9050919050565b6000602082019050818103600083015261323081612e58565b9050919050565b6000602082019050818103600083015261325081612e7b565b9050919050565b6000602082019050818103600083015261327081612e9e565b9050919050565b6000602082019050818103600083015261329081612ec1565b9050919050565b600060208201905081810360008301526132b081612ee4565b9050919050565b600060208201905081810360008301526132d081612f07565b9050919050565b600060208201905081810360008301526132f081612f2a565b9050919050565b6000602082019050818103600083015261331081612f4d565b9050919050565b6000602082019050818103600083015261333081612f70565b9050919050565b6000602082019050818103600083015261335081612f93565b9050919050565b6000602082019050818103600083015261337081612fb6565b9050919050565b6000602082019050818103600083015261339081612fd9565b9050919050565b60006020820190506133ac6000830184612ffc565b92915050565b6000610100820190506133c8600083018b612ffc565b81810360208301526133da818a612d1c565b905081810360408301526133ee8189612d1c565b90506133fd6060830188612ffc565b818103608083015261340f8187612d1c565b905061341e60a0830186612cb6565b61342b60c0830185612cb6565b61343860e0830184612cd4565b9998505050505050505050565b60006101008201905061345b600083018b612ffc565b818103602083015261346d818a612d1c565b905081810360408301526134818189612d1c565b90506134906060830188612ffc565b81810360808301526134a28187612d1c565b90506134b160a0830186612cc5565b6134be60c0830185612cc5565b6134cb60e0830184612cd4565b9998505050505050505050565b60006040820190506134ed6000830185612ffc565b6134fa6020830184612ffc565b9392505050565b600061350b61351c565b90506135178282613780565b919050565b6000604051905090565b600067ffffffffffffffff821115613541576135406138b8565b5b61354a826138e7565b9050602081019050919050565b600067ffffffffffffffff821115613572576135716138b8565b5b61357b826138e7565b9050602081019050919050565b600081519050919050565b600081519050919050565b600082825260208201905092915050565b600082825260208201905092915050565b600081905092915050565b60006135d682613702565b91506135e183613702565b9250827fffffffffffffffffffffffffffffffffffffffffffffffffffffffffffffffff038211156136165761361561382b565b5b828201905092915050565b600061362c82613702565b915061363783613702565b9250826136475761364661385a565b5b828204905092915050565b600061365d82613702565b915061366883613702565b92508282101561367b5761367a61382b565b5b828203905092915050565b6000613691826136e2565b9050919050565b60006136a3826136e2565b9050919050565b60008115159050919050565b60007fffffffff0000000000000000000000000000000000000000000000000000000082169050919050565b600073ffffffffffffffffffffffffffffffffffffffff82169050919050565b6000819050919050565b82818337600083830152505050565b60005b8381101561373957808201518184015260208101905061371e565b83811115613748576000848401525b50505050565b6000600282049050600182168061376657607f821691505b6020821081141561377a57613779613889565b5b50919050565b613789826138e7565b810181811067ffffffffffffffff821117156137a8576137a76138b8565b5b80604052505050565b60006137bc82613702565b91507fffffffffffffffffffffffffffffffffffffffffffffffffffffffffffffffff8214156137ef576137ee61382b565b5b600182019050919050565b600061380582613702565b915061381083613702565b9250826138205761381f61385a565b5b828206905092915050565b7f4e487b7100000000000000000000000000000000000000000000000000000000600052601160045260246000fd5b7f4e487b7100000000000000000000000000000000000000000000000000000000600052601260045260246000fd5b7f4e487b7100000000000000000000000000000000000000000000000000000000600052602260045260246000fd5b7f4e487b7100000000000000000000000000000000000000000000000000000000600052604160045260246000fd5b6000601f19601f8301169050919050565b7f4552433732313a207472616e7366657220746f206e6f6e20455243373231526560008201527f63656976657220696d706c656d656e7465720000000000000000000000000000602082015250565b7f4f776e61626c653a206e6577206f776e657220697320746865207a65726f206160008201527f6464726573730000000000000000000000000000000000000000000000000000602082015250565b7f4552433732313a20746f6b656e20616c7265616479206d696e74656400000000600082015250565b7f4552433732313a207472616e7366657220746f20746865207a65726f2061646460008201527f7265737300000000000000000000000000000000000000000000000000000000602082015250565b7f4552433732313a20617070726f766520746f2063616c6c657200000000000000600082015250565b7f4552433732313a206f70657261746f7220717565727920666f72206e6f6e657860008201527f697374656e7420746f6b656e0000000000000000000000000000000000000000602082015250565b7f4552433732313a206f776e657220717565727920666f72206e6f6e657869737460008201527f656e7420746f6b656e0000000000000000000000000000000000000000000000602082015250565b7f45524337323155524953746f726167653a2055524920736574206f66206e6f6e60008201527f6578697374656e7420746f6b656e000000000000000000000000000000000000602082015250565b7f506c65617365207375626d6974207468652061736b696e67207072696365206960008201527f6e206f7264657220746f20636f6d706c65746520746865207075726368617365602082015250565b7f4552433732313a206d696e7420746f20746865207a65726f2061646472657373600082015250565b7f45524337323155524953746f726167653a2055524920717565727920666f722060008201527f6e6f6e6578697374656e7420746f6b656e000000000000000000000000000000602082015250565b7f4552433732313a20617070726f76656420717565727920666f72206e6f6e657860008201527f697374656e7420746f6b656e0000000000000000000000000000000000000000602082015250565b7f4f776e61626c653a2063616c6c6572206973206e6f7420746865206f776e6572600082015250565b7f4552433732313a207472616e73666572206f6620746f6b656e2074686174206960008201527f73206e6f74206f776e0000000000000000000000000000000000000000000000602082015250565b7f4552433732314d657461646174613a2055524920717565727920666f72206e6f60008201527f6e6578697374656e7420746f6b656e0000000000000000000000000000000000602082015250565b7f4552433732313a207472616e736665722063616c6c6572206973206e6f74206f60008201527f776e6572206e6f7220617070726f766564000000000000000000000000000000602082015250565b7f746f6b656e206e6f74206d696e74656400000000000000000000000000000000600082015250565b7f6e6f7420616761696e20627579696e67206e6674206974656d00000000000000600082015250565b613dab81613686565b8114613db657600080fd5b50565b613dc2816136aa565b8114613dcd57600080fd5b50565b613dd9816136b6565b8114613de457600080fd5b50565b613df081613702565b8114613dfb57600080fd5b5056fea26469706673582212208969520b0bcec6f3f532950ae4b2453a66e7dcc5ee02a51f0914066b10f3a85e64736f6c63430008020033",
  "immutableReferences": {},
  "source": "// contracts/ENFT.sol\n// SPDX-License-Identifier: MIT\npragma solidity >=0.4.22 <0.9.0;\n\nimport \"@openzeppelin/contracts/token/ERC721/ERC721.sol\";\nimport \"@openzeppelin/contracts/token/ERC721/extensions/ERC721Enumerable.sol\";\nimport \"@openzeppelin/contracts/token/ERC721/extensions/ERC721URIStorage.sol\";\nimport \"@openzeppelin/contracts/utils/Counters.sol\";\nimport \"@openzeppelin/contracts/access/Ownable.sol\";\n\n\ncontract ENFT is ERC721URIStorage , Ownable{\n    \n    event NFTCreated (\n      uint256 indexed nftId,\n      string name,\n      string description,\n      uint256 price,\n      string image,\n      address payable seller,\n      address payable owner,\n      bool isSold\n   );\n  \n   event NftSold(uint256 nftId, address indexed buyer, uint256 price);\n   \n   modifier SaleNftItem(uint256 Id) {\n       require(nfts[Id].isSold == false, \"not again buying nft item\");\n       _;\n   }\n  \n   struct NFT {\n        uint256 nftId;\n        string name;\n        string description;\n        uint256 price;\n        string image;\n        address payable seller;\n        address payable owner;\n        bool isSold;\n    }\n    \n    using Counters for Counters.Counter;\n    using Strings for uint256;\n    Counters.Counter private _tokenIds;\n\n\n    mapping(uint256 => NFT) public nfts;\n    mapping(address => uint) private balances;\n    mapping(uint256 => address) private NftOwners;\n    mapping(address => mapping (address => uint256)) allowed;\n    \n    address payable _owner;\n\n    constructor() ERC721(\"ENFT\", \"ENFT\") {  \n       _owner = payable(msg.sender);\n    }\n\n    function balanceOf(address owner) public virtual override view returns (uint balance)\n     {\n        return balances[owner];\n     }\n     \n    function totalSupply() public view returns (uint256) \n     {\n        return _tokenIds.current();\n     }\n\n    function approve(address _to, uint256 nftId) public virtual override \n     {\n        require(msg.sender == ownerOf(nftId));\n        require(msg.sender != _to);\n        allowed[msg.sender][_to] = nftId;\n        emit Approval(msg.sender, _to, nftId);\n     }\n     \n    function mintNft(string memory tokenUR, string memory name, string memory description, uint256 price, string memory image) external onlyOwner returns (uint256) \n     {\n        require(_owner == msg.sender);\n        require(price > 0);\n\n        uint256 newNftTokenId = _tokenIds.current();\n        _safeMint(msg.sender, newNftTokenId);\n        _setTokenURI(newNftTokenId, tokenUR);\n        \n        nfts[newNftTokenId] = NFT(newNftTokenId, name, description, price, image, payable(msg.sender), payable(address(this)), false);\n        NftOwners[newNftTokenId] = msg.sender;\n        _tokenIds.increment();\n        emit NFTCreated(newNftTokenId, name, description, price, image, payable(msg.sender), payable(address(this)) , false);\n        return newNftTokenId;                                      \n     }\n    \n\n     function getNftItem(uint256 nftId) external view returns (uint256 id, string memory name, string memory description, uint256 price, string memory image, address seller, address owner, bool isSold) \n       {\n         require(_exists(nftId), \"token not minted\");\n         NFT storage nft = nfts[nftId];\n         id = nft.nftId;\n         name = nft.name;\n         description = nft.description;\n         price = nft.price;\n         image = nft.image;\n         seller = nft.seller;\n         owner =  nft.owner;\n         isSold = nft.isSold;\n       }\n     \n      function SaleNft(uint256 nftId) public payable SaleNftItem(nftId)\n       {\n            uint price = nfts[nftId].price;\n            require(msg.value == price, \"Please submit the asking price in order to complete the purchase\");\n            nfts[nftId].seller.transfer(msg.value);\n            nfts[nftId].owner = payable(msg.sender);\n            nfts[nftId].isSold = true;\n            emit NftSold(nftId, msg.sender, nfts[nftId].price);\n       }\n    \n      function ownerOfNft(uint256 nftId) public  view returns (address owner) \n       {\n        require(_exists(nftId));\n        return NftOwners[nftId];\n       }\n    \n}\n",
  "sourcePath": "/Users/erenbekman/Desktop/Blockchain/NFTMarketPlace/contracts/ENFT.sol",
  "compiler": {
    "name": "solc",
    "version": "0.8.2+commit.661d1103.Emscripten.clang"
  },
  "schemaVersion": "3.4.3",
  "updatedAt": "2021-11-04T20:01:51.824Z",
  "networkType": "ethereum",
  "devdoc": {
    "kind": "dev",
    "methods": {
      "balanceOf(address)": {
        "details": "See {IERC721-balanceOf}."
      },
      "getApproved(uint256)": {
        "details": "See {IERC721-getApproved}."
      },
      "isApprovedForAll(address,address)": {
        "details": "See {IERC721-isApprovedForAll}."
      },
      "name()": {
        "details": "See {IERC721Metadata-name}."
      },
      "owner()": {
        "details": "Returns the address of the current owner."
      },
      "ownerOf(uint256)": {
        "details": "See {IERC721-ownerOf}."
      },
      "renounceOwnership()": {
        "details": "Leaves the contract without owner. It will not be possible to call `onlyOwner` functions anymore. Can only be called by the current owner. NOTE: Renouncing ownership will leave the contract without an owner, thereby removing any functionality that is only available to the owner."
      },
      "safeTransferFrom(address,address,uint256)": {
        "details": "See {IERC721-safeTransferFrom}."
      },
      "safeTransferFrom(address,address,uint256,bytes)": {
        "details": "See {IERC721-safeTransferFrom}."
      },
      "setApprovalForAll(address,bool)": {
        "details": "See {IERC721-setApprovalForAll}."
      },
      "supportsInterface(bytes4)": {
        "details": "See {IERC165-supportsInterface}."
      },
      "symbol()": {
        "details": "See {IERC721Metadata-symbol}."
      },
      "tokenURI(uint256)": {
        "details": "See {IERC721Metadata-tokenURI}."
      },
      "transferFrom(address,address,uint256)": {
        "details": "See {IERC721-transferFrom}."
      },
      "transferOwnership(address)": {
        "details": "Transfers ownership of the contract to a new account (`newOwner`). Can only be called by the current owner."
      }
    },
    "version": 1
  },
  "userdoc": {
    "kind": "user",
    "methods": {},
    "version": 1
  }
}