{
  "contractName": "ENFT",
  "abi": [
    {
      "inputs": [],
      "stateMutability": "nonpayable",
      "type": "constructor"
    },
    {
      "anonymous": false,
      "inputs": [
        {
          "indexed": true,
          "internalType": "address",
          "name": "owner",
          "type": "address"
        },
        {
          "indexed": true,
          "internalType": "address",
          "name": "approved",
          "type": "address"
        },
        {
          "indexed": true,
          "internalType": "uint256",
          "name": "tokenId",
          "type": "uint256"
        }
      ],
      "name": "Approval",
      "type": "event"
    },
    {
      "anonymous": false,
      "inputs": [
        {
          "indexed": true,
          "internalType": "address",
          "name": "owner",
          "type": "address"
        },
        {
          "indexed": true,
          "internalType": "address",
          "name": "operator",
          "type": "address"
        },
        {
          "indexed": false,
          "internalType": "bool",
          "name": "approved",
          "type": "bool"
        }
      ],
      "name": "ApprovalForAll",
      "type": "event"
    },
    {
      "anonymous": false,
      "inputs": [
        {
          "indexed": true,
          "internalType": "uint256",
          "name": "nftId",
          "type": "uint256"
        },
        {
          "indexed": false,
          "internalType": "string",
          "name": "name",
          "type": "string"
        },
        {
          "indexed": false,
          "internalType": "string",
          "name": "description",
          "type": "string"
        },
        {
          "indexed": false,
          "internalType": "uint256",
          "name": "price",
          "type": "uint256"
        },
        {
          "indexed": false,
          "internalType": "string",
          "name": "image",
          "type": "string"
        },
        {
          "indexed": false,
          "internalType": "address payable",
          "name": "seller",
          "type": "address"
        },
        {
          "indexed": false,
          "internalType": "address payable",
          "name": "owner",
          "type": "address"
        },
        {
          "indexed": false,
          "internalType": "bool",
          "name": "isSold",
          "type": "bool"
        }
      ],
      "name": "NFTCreated",
      "type": "event"
    },
    {
      "anonymous": false,
      "inputs": [
        {
          "indexed": false,
          "internalType": "uint256",
          "name": "nftId",
          "type": "uint256"
        },
        {
          "indexed": true,
          "internalType": "address",
          "name": "buyer",
          "type": "address"
        },
        {
          "indexed": false,
          "internalType": "uint256",
          "name": "price",
          "type": "uint256"
        }
      ],
      "name": "NftSold",
      "type": "event"
    },
    {
      "anonymous": false,
      "inputs": [
        {
          "indexed": true,
          "internalType": "address",
          "name": "previousOwner",
          "type": "address"
        },
        {
          "indexed": true,
          "internalType": "address",
          "name": "newOwner",
          "type": "address"
        }
      ],
      "name": "OwnershipTransferred",
      "type": "event"
    },
    {
      "anonymous": false,
      "inputs": [
        {
          "indexed": true,
          "internalType": "address",
          "name": "from",
          "type": "address"
        },
        {
          "indexed": true,
          "internalType": "address",
          "name": "to",
          "type": "address"
        },
        {
          "indexed": true,
          "internalType": "uint256",
          "name": "tokenId",
          "type": "uint256"
        }
      ],
      "name": "Transfer",
      "type": "event"
    },
    {
      "inputs": [
        {
          "internalType": "uint256",
          "name": "tokenId",
          "type": "uint256"
        }
      ],
      "name": "getApproved",
      "outputs": [
        {
          "internalType": "address",
          "name": "",
          "type": "address"
        }
      ],
      "stateMutability": "view",
      "type": "function",
      "constant": true
    },
    {
      "inputs": [
        {
          "internalType": "address",
          "name": "owner",
          "type": "address"
        },
        {
          "internalType": "address",
          "name": "operator",
          "type": "address"
        }
      ],
      "name": "isApprovedForAll",
      "outputs": [
        {
          "internalType": "bool",
          "name": "",
          "type": "bool"
        }
      ],
      "stateMutability": "view",
      "type": "function",
      "constant": true
    },
    {
      "inputs": [],
      "name": "name",
      "outputs": [
        {
          "internalType": "string",
          "name": "",
          "type": "string"
        }
      ],
      "stateMutability": "view",
      "type": "function",
      "constant": true
    },
    {
      "inputs": [
        {
          "internalType": "uint256",
          "name": "",
          "type": "uint256"
        }
      ],
      "name": "nfts",
      "outputs": [
        {
          "internalType": "uint256",
          "name": "nftId",
          "type": "uint256"
        },
        {
          "internalType": "string",
          "name": "name",
          "type": "string"
        },
        {
          "internalType": "string",
          "name": "description",
          "type": "string"
        },
        {
          "internalType": "uint256",
          "name": "price",
          "type": "uint256"
        },
        {
          "internalType": "string",
          "name": "image",
          "type": "string"
        },
        {
          "internalType": "address payable",
          "name": "seller",
          "type": "address"
        },
        {
          "internalType": "address payable",
          "name": "owner",
          "type": "address"
        },
        {
          "internalType": "bool",
          "name": "isSold",
          "type": "bool"
        }
      ],
      "stateMutability": "view",
      "type": "function",
      "constant": true
    },
    {
      "inputs": [],
      "name": "owner",
      "outputs": [
        {
          "internalType": "address",
          "name": "",
          "type": "address"
        }
      ],
      "stateMutability": "view",
      "type": "function",
      "constant": true
    },
    {
      "inputs": [
        {
          "internalType": "uint256",
          "name": "tokenId",
          "type": "uint256"
        }
      ],
      "name": "ownerOf",
      "outputs": [
        {
          "internalType": "address",
          "name": "",
          "type": "address"
        }
      ],
      "stateMutability": "view",
      "type": "function",
      "constant": true
    },
    {
      "inputs": [],
      "name": "renounceOwnership",
      "outputs": [],
      "stateMutability": "nonpayable",
      "type": "function"
    },
    {
      "inputs": [
        {
          "internalType": "address",
          "name": "from",
          "type": "address"
        },
        {
          "internalType": "address",
          "name": "to",
          "type": "address"
        },
        {
          "internalType": "uint256",
          "name": "tokenId",
          "type": "uint256"
        }
      ],
      "name": "safeTransferFrom",
      "outputs": [],
      "stateMutability": "nonpayable",
      "type": "function"
    },
    {
      "inputs": [
        {
          "internalType": "address",
          "name": "from",
          "type": "address"
        },
        {
          "internalType": "address",
          "name": "to",
          "type": "address"
        },
        {
          "internalType": "uint256",
          "name": "tokenId",
          "type": "uint256"
        },
        {
          "internalType": "bytes",
          "name": "_data",
          "type": "bytes"
        }
      ],
      "name": "safeTransferFrom",
      "outputs": [],
      "stateMutability": "nonpayable",
      "type": "function"
    },
    {
      "inputs": [
        {
          "internalType": "address",
          "name": "operator",
          "type": "address"
        },
        {
          "internalType": "bool",
          "name": "approved",
          "type": "bool"
        }
      ],
      "name": "setApprovalForAll",
      "outputs": [],
      "stateMutability": "nonpayable",
      "type": "function"
    },
    {
      "inputs": [
        {
          "internalType": "bytes4",
          "name": "interfaceId",
          "type": "bytes4"
        }
      ],
      "name": "supportsInterface",
      "outputs": [
        {
          "internalType": "bool",
          "name": "",
          "type": "bool"
        }
      ],
      "stateMutability": "view",
      "type": "function",
      "constant": true
    },
    {
      "inputs": [],
      "name": "symbol",
      "outputs": [
        {
          "internalType": "string",
          "name": "",
          "type": "string"
        }
      ],
      "stateMutability": "view",
      "type": "function",
      "constant": true
    },
    {
      "inputs": [
        {
          "internalType": "uint256",
          "name": "tokenId",
          "type": "uint256"
        }
      ],
      "name": "tokenURI",
      "outputs": [
        {
          "internalType": "string",
          "name": "",
          "type": "string"
        }
      ],
      "stateMutability": "view",
      "type": "function",
      "constant": true
    },
    {
      "inputs": [
        {
          "internalType": "address",
          "name": "from",
          "type": "address"
        },
        {
          "internalType": "address",
          "name": "to",
          "type": "address"
        },
        {
          "internalType": "uint256",
          "name": "tokenId",
          "type": "uint256"
        }
      ],
      "name": "transferFrom",
      "outputs": [],
      "stateMutability": "nonpayable",
      "type": "function"
    },
    {
      "inputs": [
        {
          "internalType": "address",
          "name": "newOwner",
          "type": "address"
        }
      ],
      "name": "transferOwnership",
      "outputs": [],
      "stateMutability": "nonpayable",
      "type": "function"
    },
    {
      "inputs": [
        {
          "internalType": "address",
          "name": "owner",
          "type": "address"
        }
      ],
      "name": "balanceOf",
      "outputs": [
        {
          "internalType": "uint256",
          "name": "balance",
          "type": "uint256"
        }
      ],
      "stateMutability": "view",
      "type": "function",
      "constant": true
    },
    {
      "inputs": [],
      "name": "totalSupply",
      "outputs": [
        {
          "internalType": "uint256",
          "name": "",
          "type": "uint256"
        }
      ],
      "stateMutability": "view",
      "type": "function",
      "constant": true
    },
    {
      "inputs": [
        {
          "internalType": "address",
          "name": "_to",
          "type": "address"
        },
        {
          "internalType": "uint256",
          "name": "nftId",
          "type": "uint256"
        }
      ],
      "name": "approve",
      "outputs": [],
      "stateMutability": "nonpayable",
      "type": "function"
    },
    {
      "inputs": [
        {
          "internalType": "string",
          "name": "tokenUR",
          "type": "string"
        },
        {
          "internalType": "string",
          "name": "name",
          "type": "string"
        },
        {
          "internalType": "string",
          "name": "description",
          "type": "string"
        },
        {
          "internalType": "uint256",
          "name": "price",
          "type": "uint256"
        },
        {
          "internalType": "string",
          "name": "image",
          "type": "string"
        }
      ],
      "name": "mintNft",
      "outputs": [
        {
          "internalType": "uint256",
          "name": "",
          "type": "uint256"
        }
      ],
      "stateMutability": "nonpayable",
      "type": "function"
    },
    {
      "inputs": [
        {
          "internalType": "uint256",
          "name": "nftId",
          "type": "uint256"
        }
      ],
      "name": "getNftItem",
      "outputs": [
        {
          "internalType": "string",
          "name": "name",
          "type": "string"
        },
        {
          "internalType": "string",
          "name": "description",
          "type": "string"
        },
        {
          "internalType": "uint256",
          "name": "price",
          "type": "uint256"
        },
        {
          "internalType": "string",
          "name": "image",
          "type": "string"
        },
        {
          "internalType": "address",
          "name": "seller",
          "type": "address"
        },
        {
          "internalType": "address",
          "name": "owner",
          "type": "address"
        },
        {
          "internalType": "bool",
          "name": "isSold",
          "type": "bool"
        }
      ],
      "stateMutability": "view",
      "type": "function",
      "constant": true
    },
    {
      "inputs": [
        {
          "internalType": "uint256",
          "name": "nftId",
          "type": "uint256"
        }
      ],
      "name": "SaleNft",
      "outputs": [],
      "stateMutability": "payable",
      "type": "function",
      "payable": true
    },
    {
      "inputs": [
        {
          "internalType": "uint256",
          "name": "nftId",
          "type": "uint256"
        }
      ],
      "name": "ownerOfNft",
      "outputs": [
        {
          "internalType": "address",
          "name": "owner",
          "type": "address"
        }
      ],
      "stateMutability": "view",
      "type": "function",
      "constant": true
    }
  ],
  "bytecode": "0x60806040523480156200001157600080fd5b506040518060400160405280600481526020017f454e4654000000000000000000000000000000000000000000000000000000008152506040518060400160405280600481526020017f454e465400000000000000000000000000000000000000000000000000000000815250816000908051906020019062000096929190620001e7565b508060019080519060200190620000af929190620001e7565b505050620000d2620000c66200011960201b60201c565b6200012160201b60201c565b33600d60006101000a81548173ffffffffffffffffffffffffffffffffffffffff021916908373ffffffffffffffffffffffffffffffffffffffff160217905550620002fc565b600033905090565b6000600760009054906101000a900473ffffffffffffffffffffffffffffffffffffffff16905081600760006101000a81548173ffffffffffffffffffffffffffffffffffffffff021916908373ffffffffffffffffffffffffffffffffffffffff1602179055508173ffffffffffffffffffffffffffffffffffffffff168173ffffffffffffffffffffffffffffffffffffffff167f8be0079c531659141344cd1fd0a4f28419497f9722a3daafe3b4186f6b6457e060405160405180910390a35050565b828054620001f59062000297565b90600052602060002090601f01602090048101928262000219576000855562000265565b82601f106200023457805160ff191683800117855562000265565b8280016001018555821562000265579182015b828111156200026457825182559160200191906001019062000247565b5b50905062000274919062000278565b5090565b5b808211156200029357600081600090555060010162000279565b5090565b60006002820490506001821680620002b057607f821691505b60208210811415620002c757620002c6620002cd565b5b50919050565b7f4e487b7100000000000000000000000000000000000000000000000000000000600052602260045260246000fd5b613e1b806200030c6000396000f3fe6080604052600436106101355760003560e01c8063715018a6116100ab578063b33e7c8c1161006f578063b33e7c8c14610438578063b88d4fde14610475578063b922f94c1461049e578063c87b56dd146104db578063e985e9c514610518578063f2fde38b1461055557610135565b8063715018a6146103865780637354daf91461039d5780638da5cb5b146103b957806395d89b41146103e4578063a22cb4651461040f57610135565b806323b872dd116100fd57806323b872dd14610233578063265aa6211461025c57806342842e0e146102a05780636352211e146102c95780636f1a0af51461030657806370a082311461034957610135565b806301ffc9a71461013a57806306fdde0314610177578063081812fc146101a2578063095ea7b3146101df57806318160ddd14610208575b600080fd5b34801561014657600080fd5b50610161600480360381019061015c9190612b5a565b61057e565b60405161016e919061308c565b60405180910390f35b34801561018357600080fd5b5061018c610660565b60405161019991906130a7565b60405180910390f35b3480156101ae57600080fd5b506101c960048036038101906101c49190612c83565b6106f2565b6040516101d69190613025565b60405180910390f35b3480156101eb57600080fd5b5061020660048036038101906102019190612b1e565b610777565b005b34801561021457600080fd5b5061021d6108d0565b60405161022a9190613411565b60405180910390f35b34801561023f57600080fd5b5061025a60048036038101906102559190612a18565b6108e1565b005b34801561026857600080fd5b50610283600480360381019061027e9190612c83565b610941565b60405161029798979695949392919061342c565b60405180910390f35b3480156102ac57600080fd5b506102c760048036038101906102c29190612a18565b610b6e565b005b3480156102d557600080fd5b506102f060048036038101906102eb9190612c83565b610b8e565b6040516102fd9190613025565b60405180910390f35b34801561031257600080fd5b5061032d60048036038101906103289190612c83565b610c40565b604051610340979695949392919061314d565b60405180910390f35b34801561035557600080fd5b50610370600480360381019061036b91906129b3565b610ecd565b60405161037d9190613411565b60405180910390f35b34801561039257600080fd5b5061039b610f16565b005b6103b760048036038101906103b29190612c83565b610f9e565b005b3480156103c557600080fd5b506103ce6111d2565b6040516103db9190613025565b60405180910390f35b3480156103f057600080fd5b506103f96111fc565b60405161040691906130a7565b60405180910390f35b34801561041b57600080fd5b5061043660048036038101906104319190612ae2565b61128e565b005b34801561044457600080fd5b5061045f600480360381019061045a9190612bac565b61140f565b60405161046c9190613411565b60405180910390f35b34801561048157600080fd5b5061049c60048036038101906104979190612a67565b61175c565b005b3480156104aa57600080fd5b506104c560048036038101906104c09190612c83565b6117be565b6040516104d29190613025565b60405180910390f35b3480156104e757600080fd5b5061050260048036038101906104fd9190612c83565b61180d565b60405161050f91906130a7565b60405180910390f35b34801561052457600080fd5b5061053f600480360381019061053a91906129dc565b61195f565b60405161054c919061308c565b60405180910390f35b34801561056157600080fd5b5061057c600480360381019061057791906129b3565b6119f3565b005b60007f80ac58cd000000000000000000000000000000000000000000000000000000007bffffffffffffffffffffffffffffffffffffffffffffffffffffffff1916827bffffffffffffffffffffffffffffffffffffffffffffffffffffffff1916148061064957507f5b5e139f000000000000000000000000000000000000000000000000000000007bffffffffffffffffffffffffffffffffffffffffffffffffffffffff1916827bffffffffffffffffffffffffffffffffffffffffffffffffffffffff1916145b80610659575061065882611aeb565b5b9050919050565b60606000805461066f90613735565b80601f016020809104026020016040519081016040528092919081815260200182805461069b90613735565b80156106e85780601f106106bd576101008083540402835291602001916106e8565b820191906000526020600020905b8154815290600101906020018083116106cb57829003601f168201915b5050505050905090565b60006106fd82611b55565b61073c576040517f08c379a000000000000000000000000000000000000000000000000000000000815260040161073390613331565b60405180910390fd5b6004600083815260200190815260200160002060009054906101000a900473ffffffffffffffffffffffffffffffffffffffff169050919050565b61078081610b8e565b73ffffffffffffffffffffffffffffffffffffffff163373ffffffffffffffffffffffffffffffffffffffff16146107b757600080fd5b8173ffffffffffffffffffffffffffffffffffffffff163373ffffffffffffffffffffffffffffffffffffffff1614156107f057600080fd5b80600c60003373ffffffffffffffffffffffffffffffffffffffff1673ffffffffffffffffffffffffffffffffffffffff16815260200190815260200160002060008473ffffffffffffffffffffffffffffffffffffffff1673ffffffffffffffffffffffffffffffffffffffff16815260200190815260200160002081905550808273ffffffffffffffffffffffffffffffffffffffff163373ffffffffffffffffffffffffffffffffffffffff167f8c5be1e5ebec7d5bd14f71427d1e84f3dd0314c0f7b2291e5b200ac8c7c3b92560405160405180910390a45050565b60006108dc6008611bc1565b905090565b6108f26108ec611bcf565b82611bd7565b610931576040517f08c379a0000000000000000000000000000000000000000000000000000000008152600401610928906133b1565b60405180910390fd5b61093c838383611cb5565b505050565b600960205280600052604060002060009150905080600001549080600101805461096a90613735565b80601f016020809104026020016040519081016040528092919081815260200182805461099690613735565b80156109e35780601f106109b8576101008083540402835291602001916109e3565b820191906000526020600020905b8154815290600101906020018083116109c657829003601f168201915b5050505050908060020180546109f890613735565b80601f0160208091040260200160405190810160405280929190818152602001828054610a2490613735565b8015610a715780601f10610a4657610100808354040283529160200191610a71565b820191906000526020600020905b815481529060010190602001808311610a5457829003601f168201915b505050505090806003015490806004018054610a8c90613735565b80601f0160208091040260200160405190810160405280929190818152602001828054610ab890613735565b8015610b055780601f10610ada57610100808354040283529160200191610b05565b820191906000526020600020905b815481529060010190602001808311610ae857829003601f168201915b5050505050908060050160009054906101000a900473ffffffffffffffffffffffffffffffffffffffff16908060060160009054906101000a900473ffffffffffffffffffffffffffffffffffffffff16908060060160149054906101000a900460ff16905088565b610b898383836040518060200160405280600081525061175c565b505050565b6000806002600084815260200190815260200160002060009054906101000a900473ffffffffffffffffffffffffffffffffffffffff169050600073ffffffffffffffffffffffffffffffffffffffff168173ffffffffffffffffffffffffffffffffffffffff161415610c37576040517f08c379a0000000000000000000000000000000000000000000000000000000008152600401610c2e90613291565b60405180910390fd5b80915050919050565b606080600060606000806000610c5588611b55565b610c94576040517f08c379a0000000000000000000000000000000000000000000000000000000008152600401610c8b906133d1565b60405180910390fd5b6000600960008a81526020019081526020016000209050806001018054610cba90613735565b80601f0160208091040260200160405190810160405280929190818152602001828054610ce690613735565b8015610d335780601f10610d0857610100808354040283529160200191610d33565b820191906000526020600020905b815481529060010190602001808311610d1657829003601f168201915b50505050509750806002018054610d4990613735565b80601f0160208091040260200160405190810160405280929190818152602001828054610d7590613735565b8015610dc25780601f10610d9757610100808354040283529160200191610dc2565b820191906000526020600020905b815481529060010190602001808311610da557829003601f168201915b5050505050965080600301549550806004018054610ddf90613735565b80601f0160208091040260200160405190810160405280929190818152602001828054610e0b90613735565b8015610e585780601f10610e2d57610100808354040283529160200191610e58565b820191906000526020600020905b815481529060010190602001808311610e3b57829003601f168201915b505050505094508060050160009054906101000a900473ffffffffffffffffffffffffffffffffffffffff1693508060060160009054906101000a900473ffffffffffffffffffffffffffffffffffffffff1692508060060160149054906101000a900460ff16915050919395979092949650565b6000600a60008373ffffffffffffffffffffffffffffffffffffffff1673ffffffffffffffffffffffffffffffffffffffff168152602001908152602001600020549050919050565b610f1e611bcf565b73ffffffffffffffffffffffffffffffffffffffff16610f3c6111d2565b73ffffffffffffffffffffffffffffffffffffffff1614610f92576040517f08c379a0000000000000000000000000000000000000000000000000000000008152600401610f8990613351565b60405180910390fd5b610f9c6000611f11565b565b80600015156009600083815260200190815260200160002060060160149054906101000a900460ff16151514611009576040517f08c379a0000000000000000000000000000000000000000000000000000000008152600401611000906133f1565b60405180910390fd5b600060096000848152602001908152602001600020600301549050803414611066576040517f08c379a000000000000000000000000000000000000000000000000000000000815260040161105d906132d1565b60405180910390fd5b6009600084815260200190815260200160002060050160009054906101000a900473ffffffffffffffffffffffffffffffffffffffff1673ffffffffffffffffffffffffffffffffffffffff166108fc349081150290604051600060405180830381858888f193505050501580156110e2573d6000803e3d6000fd5b50336009600085815260200190815260200160002060060160006101000a81548173ffffffffffffffffffffffffffffffffffffffff021916908373ffffffffffffffffffffffffffffffffffffffff16021790555060016009600085815260200190815260200160002060060160146101000a81548160ff0219169083151502179055503373ffffffffffffffffffffffffffffffffffffffff167f410787feaee69e25111c916ccc79ee0fb3dd27b169bcb00209efdd59c5148f368460096000878152602001908152602001600020600301546040516111c59291906134bf565b60405180910390a2505050565b6000600760009054906101000a900473ffffffffffffffffffffffffffffffffffffffff16905090565b60606001805461120b90613735565b80601f016020809104026020016040519081016040528092919081815260200182805461123790613735565b80156112845780601f1061125957610100808354040283529160200191611284565b820191906000526020600020905b81548152906001019060200180831161126757829003601f168201915b5050505050905090565b611296611bcf565b73ffffffffffffffffffffffffffffffffffffffff168273ffffffffffffffffffffffffffffffffffffffff161415611304576040517f08c379a00000000000000000000000000000000000000000000000000000000081526004016112fb90613251565b60405180910390fd5b8060056000611311611bcf565b73ffffffffffffffffffffffffffffffffffffffff1673ffffffffffffffffffffffffffffffffffffffff16815260200190815260200160002060008473ffffffffffffffffffffffffffffffffffffffff1673ffffffffffffffffffffffffffffffffffffffff16815260200190815260200160002060006101000a81548160ff0219169083151502179055508173ffffffffffffffffffffffffffffffffffffffff166113be611bcf565b73ffffffffffffffffffffffffffffffffffffffff167f17307eab39ab6107e8899845ad3d59bd9653f200f220920489ca2b5937696c3183604051611403919061308c565b60405180910390a35050565b6000611419611bcf565b73ffffffffffffffffffffffffffffffffffffffff166114376111d2565b73ffffffffffffffffffffffffffffffffffffffff161461148d576040517f08c379a000000000000000000000000000000000000000000000000000000000815260040161148490613351565b60405180910390fd5b3373ffffffffffffffffffffffffffffffffffffffff16600d60009054906101000a900473ffffffffffffffffffffffffffffffffffffffff1673ffffffffffffffffffffffffffffffffffffffff16146114e757600080fd5b600083116114f457600080fd5b60006115006008611bc1565b905061150c3382611fd7565b6115168188611ff5565b6040518061010001604052808281526020018781526020018681526020018581526020018481526020013373ffffffffffffffffffffffffffffffffffffffff1681526020013073ffffffffffffffffffffffffffffffffffffffff16815260200160001515815250600960008381526020019081526020016000206000820151816000015560208201518160010190805190602001906115b89291906127d7565b5060408201518160020190805190602001906115d59291906127d7565b506060820151816003015560808201518160040190805190602001906115fc9291906127d7565b5060a08201518160050160006101000a81548173ffffffffffffffffffffffffffffffffffffffff021916908373ffffffffffffffffffffffffffffffffffffffff16021790555060c08201518160060160006101000a81548173ffffffffffffffffffffffffffffffffffffffff021916908373ffffffffffffffffffffffffffffffffffffffff16021790555060e08201518160060160146101000a81548160ff02191690831515021790555090505033600b600083815260200190815260200160002060006101000a81548173ffffffffffffffffffffffffffffffffffffffff021916908373ffffffffffffffffffffffffffffffffffffffff16021790555061170a6008612069565b807f54e4f34aa4090c02a5d57852cda7e9100e5de2f844e9729724b324a61b067252878787873330600060405161174797969594939291906130c9565b60405180910390a28091505095945050505050565b61176d611767611bcf565b83611bd7565b6117ac576040517f08c379a00000000000000000000000000000000000000000000000000000000081526004016117a3906133b1565b60405180910390fd5b6117b88484848461207f565b50505050565b60006117c982611b55565b6117d257600080fd5b600b600083815260200190815260200160002060009054906101000a900473ffffffffffffffffffffffffffffffffffffffff169050919050565b606061181882611b55565b611857576040517f08c379a000000000000000000000000000000000000000000000000000000000815260040161184e90613311565b60405180910390fd5b600060066000848152602001908152602001600020805461187790613735565b80601f01602080910402602001604051908101604052809291908181526020018280546118a390613735565b80156118f05780601f106118c5576101008083540402835291602001916118f0565b820191906000526020600020905b8154815290600101906020018083116118d357829003601f168201915b5050505050905060006119016120db565b905060008151141561191757819250505061195a565b60008251111561194c578082604051602001611934929190613001565b6040516020818303038152906040529250505061195a565b611955846120f2565b925050505b919050565b6000600560008473ffffffffffffffffffffffffffffffffffffffff1673ffffffffffffffffffffffffffffffffffffffff16815260200190815260200160002060008373ffffffffffffffffffffffffffffffffffffffff1673ffffffffffffffffffffffffffffffffffffffff16815260200190815260200160002060009054906101000a900460ff16905092915050565b6119fb611bcf565b73ffffffffffffffffffffffffffffffffffffffff16611a196111d2565b73ffffffffffffffffffffffffffffffffffffffff1614611a6f576040517f08c379a0000000000000000000000000000000000000000000000000000000008152600401611a6690613351565b60405180910390fd5b600073ffffffffffffffffffffffffffffffffffffffff168173ffffffffffffffffffffffffffffffffffffffff161415611adf576040517f08c379a0000000000000000000000000000000000000000000000000000000008152600401611ad6906131f1565b60405180910390fd5b611ae881611f11565b50565b60007f01ffc9a7000000000000000000000000000000000000000000000000000000007bffffffffffffffffffffffffffffffffffffffffffffffffffffffff1916827bffffffffffffffffffffffffffffffffffffffffffffffffffffffff1916149050919050565b60008073ffffffffffffffffffffffffffffffffffffffff166002600084815260200190815260200160002060009054906101000a900473ffffffffffffffffffffffffffffffffffffffff1673ffffffffffffffffffffffffffffffffffffffff1614159050919050565b600081600001549050919050565b600033905090565b6000611be282611b55565b611c21576040517f08c379a0000000000000000000000000000000000000000000000000000000008152600401611c1890613271565b60405180910390fd5b6000611c2c83610b8e565b90508073ffffffffffffffffffffffffffffffffffffffff168473ffffffffffffffffffffffffffffffffffffffff161480611c9b57508373ffffffffffffffffffffffffffffffffffffffff16611c83846106f2565b73ffffffffffffffffffffffffffffffffffffffff16145b80611cac5750611cab818561195f565b5b91505092915050565b8273ffffffffffffffffffffffffffffffffffffffff16611cd582610b8e565b73ffffffffffffffffffffffffffffffffffffffff1614611d2b576040517f08c379a0000000000000000000000000000000000000000000000000000000008152600401611d2290613371565b60405180910390fd5b600073ffffffffffffffffffffffffffffffffffffffff168273ffffffffffffffffffffffffffffffffffffffff161415611d9b576040517f08c379a0000000000000000000000000000000000000000000000000000000008152600401611d9290613231565b60405180910390fd5b611da6838383612199565b611db160008261219e565b6001600360008573ffffffffffffffffffffffffffffffffffffffff1673ffffffffffffffffffffffffffffffffffffffff1681526020019081526020016000206000828254611e019190613639565b925050819055506001600360008473ffffffffffffffffffffffffffffffffffffffff1673ffffffffffffffffffffffffffffffffffffffff1681526020019081526020016000206000828254611e5891906135b2565b92505081905550816002600083815260200190815260200160002060006101000a81548173ffffffffffffffffffffffffffffffffffffffff021916908373ffffffffffffffffffffffffffffffffffffffff160217905550808273ffffffffffffffffffffffffffffffffffffffff168473ffffffffffffffffffffffffffffffffffffffff167fddf252ad1be2c89b69c2b068fc378daa952ba7f163c4a11628f55a4df523b3ef60405160405180910390a4505050565b6000600760009054906101000a900473ffffffffffffffffffffffffffffffffffffffff16905081600760006101000a81548173ffffffffffffffffffffffffffffffffffffffff021916908373ffffffffffffffffffffffffffffffffffffffff1602179055508173ffffffffffffffffffffffffffffffffffffffff168173ffffffffffffffffffffffffffffffffffffffff167f8be0079c531659141344cd1fd0a4f28419497f9722a3daafe3b4186f6b6457e060405160405180910390a35050565b611ff1828260405180602001604052806000815250612257565b5050565b611ffe82611b55565b61203d576040517f08c379a0000000000000000000000000000000000000000000000000000000008152600401612034906132b1565b60405180910390fd5b806006600084815260200190815260200160002090805190602001906120649291906127d7565b505050565b6001816000016000828254019250508190555050565b61208a848484611cb5565b612096848484846122b2565b6120d5576040517f08c379a00000000000000000000000000000000000000000000000000000000081526004016120cc906131d1565b60405180910390fd5b50505050565b606060405180602001604052806000815250905090565b60606120fd82611b55565b61213c576040517f08c379a000000000000000000000000000000000000000000000000000000000815260040161213390613391565b60405180910390fd5b60006121466120db565b905060008151116121665760405180602001604052806000815250612191565b8061217084612449565b604051602001612181929190613001565b6040516020818303038152906040525b915050919050565b505050565b816004600083815260200190815260200160002060006101000a81548173ffffffffffffffffffffffffffffffffffffffff021916908373ffffffffffffffffffffffffffffffffffffffff160217905550808273ffffffffffffffffffffffffffffffffffffffff1661221183610b8e565b73ffffffffffffffffffffffffffffffffffffffff167f8c5be1e5ebec7d5bd14f71427d1e84f3dd0314c0f7b2291e5b200ac8c7c3b92560405160405180910390a45050565b61226183836125f6565b61226e60008484846122b2565b6122ad576040517f08c379a00000000000000000000000000000000000000000000000000000000081526004016122a4906131d1565b60405180910390fd5b505050565b60006122d38473ffffffffffffffffffffffffffffffffffffffff166127c4565b1561243c578373ffffffffffffffffffffffffffffffffffffffff1663150b7a026122fc611bcf565b8786866040518563ffffffff1660e01b815260040161231e9493929190613040565b602060405180830381600087803b15801561233857600080fd5b505af192505050801561236957506040513d601f19601f820116820180604052508101906123669190612b83565b60015b6123ec573d8060008114612399576040519150601f19603f3d011682016040523d82523d6000602084013e61239e565b606091505b506000815114156123e4576040517f08c379a00000000000000000000000000000000000000000000000000000000081526004016123db906131d1565b60405180910390fd5b805181602001fd5b63150b7a0260e01b7bffffffffffffffffffffffffffffffffffffffffffffffffffffffff1916817bffffffffffffffffffffffffffffffffffffffffffffffffffffffff191614915050612441565b600190505b949350505050565b60606000821415612491576040518060400160405280600181526020017f300000000000000000000000000000000000000000000000000000000000000081525090506125f1565b600082905060005b600082146124c35780806124ac90613798565b915050600a826124bc9190613608565b9150612499565b60008167ffffffffffffffff811115612505577f4e487b7100000000000000000000000000000000000000000000000000000000600052604160045260246000fd5b6040519080825280601f01601f1916602001820160405280156125375781602001600182028036833780820191505090505b5090505b600085146125ea576001826125509190613639565b9150600a8561255f91906137e1565b603061256b91906135b2565b60f81b8183815181106125a7577f4e487b7100000000000000000000000000000000000000000000000000000000600052603260045260246000fd5b60200101907effffffffffffffffffffffffffffffffffffffffffffffffffffffffffffff1916908160001a905350600a856125e39190613608565b945061253b565b8093505050505b919050565b600073ffffffffffffffffffffffffffffffffffffffff168273ffffffffffffffffffffffffffffffffffffffff161415612666576040517f08c379a000000000000000000000000000000000000000000000000000000000815260040161265d906132f1565b60405180910390fd5b61266f81611b55565b156126af576040517f08c379a00000000000000000000000000000000000000000000000000000000081526004016126a690613211565b60405180910390fd5b6126bb60008383612199565b6001600360008473ffffffffffffffffffffffffffffffffffffffff1673ffffffffffffffffffffffffffffffffffffffff168152602001908152602001600020600082825461270b91906135b2565b92505081905550816002600083815260200190815260200160002060006101000a81548173ffffffffffffffffffffffffffffffffffffffff021916908373ffffffffffffffffffffffffffffffffffffffff160217905550808273ffffffffffffffffffffffffffffffffffffffff16600073ffffffffffffffffffffffffffffffffffffffff167fddf252ad1be2c89b69c2b068fc378daa952ba7f163c4a11628f55a4df523b3ef60405160405180910390a45050565b600080823b905060008111915050919050565b8280546127e390613735565b90600052602060002090601f016020900481019282612805576000855561284c565b82601f1061281e57805160ff191683800117855561284c565b8280016001018555821561284c579182015b8281111561284b578251825591602001919060010190612830565b5b509050612859919061285d565b5090565b5b8082111561287657600081600090555060010161285e565b5090565b600061288d6128888461350d565b6134e8565b9050828152602081018484840111156128a557600080fd5b6128b08482856136f3565b509392505050565b60006128cb6128c68461353e565b6134e8565b9050828152602081018484840111156128e357600080fd5b6128ee8482856136f3565b509392505050565b60008135905061290581613d89565b92915050565b60008135905061291a81613da0565b92915050565b60008135905061292f81613db7565b92915050565b60008151905061294481613db7565b92915050565b600082601f83011261295b57600080fd5b813561296b84826020860161287a565b91505092915050565b600082601f83011261298557600080fd5b81356129958482602086016128b8565b91505092915050565b6000813590506129ad81613dce565b92915050565b6000602082840312156129c557600080fd5b60006129d3848285016128f6565b91505092915050565b600080604083850312156129ef57600080fd5b60006129fd858286016128f6565b9250506020612a0e858286016128f6565b9150509250929050565b600080600060608486031215612a2d57600080fd5b6000612a3b868287016128f6565b9350506020612a4c868287016128f6565b9250506040612a5d8682870161299e565b9150509250925092565b60008060008060808587031215612a7d57600080fd5b6000612a8b878288016128f6565b9450506020612a9c878288016128f6565b9350506040612aad8782880161299e565b925050606085013567ffffffffffffffff811115612aca57600080fd5b612ad68782880161294a565b91505092959194509250565b60008060408385031215612af557600080fd5b6000612b03858286016128f6565b9250506020612b148582860161290b565b9150509250929050565b60008060408385031215612b3157600080fd5b6000612b3f858286016128f6565b9250506020612b508582860161299e565b9150509250929050565b600060208284031215612b6c57600080fd5b6000612b7a84828501612920565b91505092915050565b600060208284031215612b9557600080fd5b6000612ba384828501612935565b91505092915050565b600080600080600060a08688031215612bc457600080fd5b600086013567ffffffffffffffff811115612bde57600080fd5b612bea88828901612974565b955050602086013567ffffffffffffffff811115612c0757600080fd5b612c1388828901612974565b945050604086013567ffffffffffffffff811115612c3057600080fd5b612c3c88828901612974565b9350506060612c4d8882890161299e565b925050608086013567ffffffffffffffff811115612c6a57600080fd5b612c7688828901612974565b9150509295509295909350565b600060208284031215612c9557600080fd5b6000612ca38482850161299e565b91505092915050565b612cb58161367f565b82525050565b612cc48161366d565b82525050565b612cd381613691565b82525050565b6000612ce48261356f565b612cee8185613585565b9350612cfe818560208601613702565b612d07816138ce565b840191505092915050565b6000612d1d8261357a565b612d278185613596565b9350612d37818560208601613702565b612d40816138ce565b840191505092915050565b6000612d568261357a565b612d6081856135a7565b9350612d70818560208601613702565b80840191505092915050565b6000612d89603283613596565b9150612d94826138df565b604082019050919050565b6000612dac602683613596565b9150612db78261392e565b604082019050919050565b6000612dcf601c83613596565b9150612dda8261397d565b602082019050919050565b6000612df2602483613596565b9150612dfd826139a6565b604082019050919050565b6000612e15601983613596565b9150612e20826139f5565b602082019050919050565b6000612e38602c83613596565b9150612e4382613a1e565b604082019050919050565b6000612e5b602983613596565b9150612e6682613a6d565b604082019050919050565b6000612e7e602e83613596565b9150612e8982613abc565b604082019050919050565b6000612ea1604083613596565b9150612eac82613b0b565b604082019050919050565b6000612ec4602083613596565b9150612ecf82613b5a565b602082019050919050565b6000612ee7603183613596565b9150612ef282613b83565b604082019050919050565b6000612f0a602c83613596565b9150612f1582613bd2565b604082019050919050565b6000612f2d602083613596565b9150612f3882613c21565b602082019050919050565b6000612f50602983613596565b9150612f5b82613c4a565b604082019050919050565b6000612f73602f83613596565b9150612f7e82613c99565b604082019050919050565b6000612f96603183613596565b9150612fa182613ce8565b604082019050919050565b6000612fb9601083613596565b9150612fc482613d37565b602082019050919050565b6000612fdc601983613596565b9150612fe782613d60565b602082019050919050565b612ffb816136e9565b82525050565b600061300d8285612d4b565b91506130198284612d4b565b91508190509392505050565b600060208201905061303a6000830184612cbb565b92915050565b60006080820190506130556000830187612cbb565b6130626020830186612cbb565b61306f6040830185612ff2565b81810360608301526130818184612cd9565b905095945050505050565b60006020820190506130a16000830184612cca565b92915050565b600060208201905081810360008301526130c18184612d12565b905092915050565b600060e08201905081810360008301526130e3818a612d12565b905081810360208301526130f78189612d12565b90506131066040830188612ff2565b81810360608301526131188187612d12565b90506131276080830186612cac565b61313460a0830185612cac565b61314160c0830184612cca565b98975050505050505050565b600060e0820190508181036000830152613167818a612d12565b9050818103602083015261317b8189612d12565b905061318a6040830188612ff2565b818103606083015261319c8187612d12565b90506131ab6080830186612cbb565b6131b860a0830185612cbb565b6131c560c0830184612cca565b98975050505050505050565b600060208201905081810360008301526131ea81612d7c565b9050919050565b6000602082019050818103600083015261320a81612d9f565b9050919050565b6000602082019050818103600083015261322a81612dc2565b9050919050565b6000602082019050818103600083015261324a81612de5565b9050919050565b6000602082019050818103600083015261326a81612e08565b9050919050565b6000602082019050818103600083015261328a81612e2b565b9050919050565b600060208201905081810360008301526132aa81612e4e565b9050919050565b600060208201905081810360008301526132ca81612e71565b9050919050565b600060208201905081810360008301526132ea81612e94565b9050919050565b6000602082019050818103600083015261330a81612eb7565b9050919050565b6000602082019050818103600083015261332a81612eda565b9050919050565b6000602082019050818103600083015261334a81612efd565b9050919050565b6000602082019050818103600083015261336a81612f20565b9050919050565b6000602082019050818103600083015261338a81612f43565b9050919050565b600060208201905081810360008301526133aa81612f66565b9050919050565b600060208201905081810360008301526133ca81612f89565b9050919050565b600060208201905081810360008301526133ea81612fac565b9050919050565b6000602082019050818103600083015261340a81612fcf565b9050919050565b60006020820190506134266000830184612ff2565b92915050565b600061010082019050613442600083018b612ff2565b8181036020830152613454818a612d12565b905081810360408301526134688189612d12565b90506134776060830188612ff2565b81810360808301526134898187612d12565b905061349860a0830186612cac565b6134a560c0830185612cac565b6134b260e0830184612cca565b9998505050505050505050565b60006040820190506134d46000830185612ff2565b6134e16020830184612ff2565b9392505050565b60006134f2613503565b90506134fe8282613767565b919050565b6000604051905090565b600067ffffffffffffffff8211156135285761352761389f565b5b613531826138ce565b9050602081019050919050565b600067ffffffffffffffff8211156135595761355861389f565b5b613562826138ce565b9050602081019050919050565b600081519050919050565b600081519050919050565b600082825260208201905092915050565b600082825260208201905092915050565b600081905092915050565b60006135bd826136e9565b91506135c8836136e9565b9250827fffffffffffffffffffffffffffffffffffffffffffffffffffffffffffffffff038211156135fd576135fc613812565b5b828201905092915050565b6000613613826136e9565b915061361e836136e9565b92508261362e5761362d613841565b5b828204905092915050565b6000613644826136e9565b915061364f836136e9565b92508282101561366257613661613812565b5b828203905092915050565b6000613678826136c9565b9050919050565b600061368a826136c9565b9050919050565b60008115159050919050565b60007fffffffff0000000000000000000000000000000000000000000000000000000082169050919050565b600073ffffffffffffffffffffffffffffffffffffffff82169050919050565b6000819050919050565b82818337600083830152505050565b60005b83811015613720578082015181840152602081019050613705565b8381111561372f576000848401525b50505050565b6000600282049050600182168061374d57607f821691505b6020821081141561376157613760613870565b5b50919050565b613770826138ce565b810181811067ffffffffffffffff8211171561378f5761378e61389f565b5b80604052505050565b60006137a3826136e9565b91507fffffffffffffffffffffffffffffffffffffffffffffffffffffffffffffffff8214156137d6576137d5613812565b5b600182019050919050565b60006137ec826136e9565b91506137f7836136e9565b92508261380757613806613841565b5b828206905092915050565b7f4e487b7100000000000000000000000000000000000000000000000000000000600052601160045260246000fd5b7f4e487b7100000000000000000000000000000000000000000000000000000000600052601260045260246000fd5b7f4e487b7100000000000000000000000000000000000000000000000000000000600052602260045260246000fd5b7f4e487b7100000000000000000000000000000000000000000000000000000000600052604160045260246000fd5b6000601f19601f8301169050919050565b7f4552433732313a207472616e7366657220746f206e6f6e20455243373231526560008201527f63656976657220696d706c656d656e7465720000000000000000000000000000602082015250565b7f4f776e61626c653a206e6577206f776e657220697320746865207a65726f206160008201527f6464726573730000000000000000000000000000000000000000000000000000602082015250565b7f4552433732313a20746f6b656e20616c7265616479206d696e74656400000000600082015250565b7f4552433732313a207472616e7366657220746f20746865207a65726f2061646460008201527f7265737300000000000000000000000000000000000000000000000000000000602082015250565b7f4552433732313a20617070726f766520746f2063616c6c657200000000000000600082015250565b7f4552433732313a206f70657261746f7220717565727920666f72206e6f6e657860008201527f697374656e7420746f6b656e0000000000000000000000000000000000000000602082015250565b7f4552433732313a206f776e657220717565727920666f72206e6f6e657869737460008201527f656e7420746f6b656e0000000000000000000000000000000000000000000000602082015250565b7f45524337323155524953746f726167653a2055524920736574206f66206e6f6e60008201527f6578697374656e7420746f6b656e000000000000000000000000000000000000602082015250565b7f506c65617365207375626d6974207468652061736b696e67207072696365206960008201527f6e206f7264657220746f20636f6d706c65746520746865207075726368617365602082015250565b7f4552433732313a206d696e7420746f20746865207a65726f2061646472657373600082015250565b7f45524337323155524953746f726167653a2055524920717565727920666f722060008201527f6e6f6e6578697374656e7420746f6b656e000000000000000000000000000000602082015250565b7f4552433732313a20617070726f76656420717565727920666f72206e6f6e657860008201527f697374656e7420746f6b656e0000000000000000000000000000000000000000602082015250565b7f4f776e61626c653a2063616c6c6572206973206e6f7420746865206f776e6572600082015250565b7f4552433732313a207472616e73666572206f6620746f6b656e2074686174206960008201527f73206e6f74206f776e0000000000000000000000000000000000000000000000602082015250565b7f4552433732314d657461646174613a2055524920717565727920666f72206e6f60008201527f6e6578697374656e7420746f6b656e0000000000000000000000000000000000602082015250565b7f4552433732313a207472616e736665722063616c6c6572206973206e6f74206f60008201527f776e6572206e6f7220617070726f766564000000000000000000000000000000602082015250565b7f746f6b656e206e6f74206d696e74656400000000000000000000000000000000600082015250565b7f6e6f7420616761696e20627579696e67206e6674206974656d00000000000000600082015250565b613d928161366d565b8114613d9d57600080fd5b50565b613da981613691565b8114613db457600080fd5b50565b613dc08161369d565b8114613dcb57600080fd5b50565b613dd7816136e9565b8114613de257600080fd5b5056fea26469706673582212202345e5d5f4c341974811fd6652c809bcece9916cf1fb621bd475133c1cef28e064736f6c63430008020033",
  "immutableReferences": {},
  "source": "// contracts/ENFT.sol\n// SPDX-License-Identifier: MIT\npragma solidity >=0.4.22 <0.9.0;\n\nimport \"@openzeppelin/contracts/token/ERC721/ERC721.sol\";\nimport \"@openzeppelin/contracts/token/ERC721/extensions/ERC721Enumerable.sol\";\nimport \"@openzeppelin/contracts/token/ERC721/extensions/ERC721URIStorage.sol\";\nimport \"@openzeppelin/contracts/utils/Counters.sol\";\nimport \"@openzeppelin/contracts/access/Ownable.sol\";\n\n\ncontract ENFT is ERC721URIStorage , Ownable{\n    \n    event NFTCreated (\n      uint256 indexed nftId,\n      string name,\n      string description,\n      uint256 price,\n      string image,\n      address payable seller,\n      address payable owner,\n      bool isSold\n   );\n  \n   event NftSold(uint256 nftId, address indexed buyer, uint256 price);\n   \n   modifier SaleNftItem(uint256 Id) {\n       require(nfts[Id].isSold == false, \"not again buying nft item\");\n       _;\n   }\n  \n   struct NFT {\n        uint256 nftId;\n        string name;\n        string description;\n        uint256 price;\n        string image;\n        address payable seller;\n        address payable owner;\n        bool isSold;\n    }\n    \n    using Counters for Counters.Counter;\n    using Strings for uint256;\n    Counters.Counter private _tokenIds;\n\n    mapping(uint256 => NFT) public nfts;\n    mapping(address => uint) private balances;\n    mapping(uint256 => address) private NftOwners;\n    mapping(address => mapping (address => uint256)) allowed;\n    \n    address payable _owner;\n\n    constructor() ERC721(\"ENFT\", \"ENFT\") {  \n       _owner = payable(msg.sender);\n    }\n\n    function balanceOf(address owner) public virtual override view returns (uint balance)\n     {\n        return balances[owner];\n     }\n     \n    function totalSupply() public view returns (uint256) \n     {\n        return _tokenIds.current();\n     }\n\n    function approve(address _to, uint256 nftId) public virtual override \n     {\n        require(msg.sender == ownerOf(nftId));\n        require(msg.sender != _to);\n        allowed[msg.sender][_to] = nftId;\n        emit Approval(msg.sender, _to, nftId);\n     }\n     \n    function mintNft(string memory tokenUR, string memory name, string memory description, uint256 price, string memory image) external onlyOwner returns (uint256) \n     {\n        require(_owner == msg.sender);\n        require(price > 0);\n\n        uint256 newNftTokenId = _tokenIds.current();\n        _safeMint(msg.sender, newNftTokenId);\n        _setTokenURI(newNftTokenId, tokenUR);\n        \n        nfts[newNftTokenId] = NFT(newNftTokenId, name, description, price, image, payable(msg.sender), payable(address(this)), false);\n        NftOwners[newNftTokenId] = msg.sender;\n        _tokenIds.increment();\n        emit NFTCreated(newNftTokenId, name, description, price, image, payable(msg.sender), payable(address(this)) , false);\n        return newNftTokenId;                                      \n     }\n    \n\n     function getNftItem(uint256 nftId) external view returns (string memory name, string memory description, uint256 price, string memory image, address seller, address owner, bool isSold) \n      {\n        require(_exists(nftId), \"token not minted\");\n        NFT storage nft = nfts[nftId];\n        name = nft.name;\n        description = nft.description;\n        price = nft.price;\n        image = nft.image;\n        seller = nft.seller;\n        owner =  nft.owner;\n        isSold = nft.isSold;\n     }\n     \n      function SaleNft(uint256 nftId) public payable SaleNftItem(nftId)\n       {\n            uint price = nfts[nftId].price;\n            require(msg.value == price, \"Please submit the asking price in order to complete the purchase\");\n            nfts[nftId].seller.transfer(msg.value);\n            nfts[nftId].owner = payable(msg.sender);\n            nfts[nftId].isSold = true;\n            emit NftSold(nftId, msg.sender, nfts[nftId].price);\n       }\n    \n\n    function ownerOfNft(uint256 nftId) public  view returns (address owner) \n     {\n        require(_exists(nftId));\n        return NftOwners[nftId];\n     }\n    \n}\n",
  "sourcePath": "/Users/erenbekman/Desktop/Blockchain/NFTMarketPlace/contracts/ENFT.sol",
  "compiler": {
    "name": "solc",
    "version": "0.8.2+commit.661d1103.Emscripten.clang"
  },
  "schemaVersion": "3.4.3",
  "updatedAt": "2021-10-31T20:45:10.983Z",
  "networkType": "ethereum",
  "devdoc": {
    "kind": "dev",
    "methods": {
      "balanceOf(address)": {
        "details": "See {IERC721-balanceOf}."
      },
      "getApproved(uint256)": {
        "details": "See {IERC721-getApproved}."
      },
      "isApprovedForAll(address,address)": {
        "details": "See {IERC721-isApprovedForAll}."
      },
      "name()": {
        "details": "See {IERC721Metadata-name}."
      },
      "owner()": {
        "details": "Returns the address of the current owner."
      },
      "ownerOf(uint256)": {
        "details": "See {IERC721-ownerOf}."
      },
      "renounceOwnership()": {
        "details": "Leaves the contract without owner. It will not be possible to call `onlyOwner` functions anymore. Can only be called by the current owner. NOTE: Renouncing ownership will leave the contract without an owner, thereby removing any functionality that is only available to the owner."
      },
      "safeTransferFrom(address,address,uint256)": {
        "details": "See {IERC721-safeTransferFrom}."
      },
      "safeTransferFrom(address,address,uint256,bytes)": {
        "details": "See {IERC721-safeTransferFrom}."
      },
      "setApprovalForAll(address,bool)": {
        "details": "See {IERC721-setApprovalForAll}."
      },
      "supportsInterface(bytes4)": {
        "details": "See {IERC165-supportsInterface}."
      },
      "symbol()": {
        "details": "See {IERC721Metadata-symbol}."
      },
      "tokenURI(uint256)": {
        "details": "See {IERC721Metadata-tokenURI}."
      },
      "transferFrom(address,address,uint256)": {
        "details": "See {IERC721-transferFrom}."
      },
      "transferOwnership(address)": {
        "details": "Transfers ownership of the contract to a new account (`newOwner`). Can only be called by the current owner."
      }
    },
    "version": 1
  },
  "userdoc": {
    "kind": "user",
    "methods": {},
    "version": 1
  }
}